S01B0000436F64657369676E53656D69706172616D45512E73726563A8
S214400000A85C0020950340001904400019044000F5
S2144000101904400019044000190440000000000084
S214400020000000000000000000000000190440002E
S2144000301904400000000000190440001904400064
S21440004019044000190440001904400019044000F7
S21440005019044000190440001904400019044000E7
S214400060190440002512400000000000190440001A
S21440007019044000190440001904400019044000C7
S214400080E1104000190440001904400019044000E3
S21440009019044000190440001904400019044000A7
S2144000A01904400019044000190440001904400097
S2144000B01904400019044000000000000000000041
S2144000C000000000000000000000000000000000EB
S2144000D000000000000000000000000000000000DB
S2144000E000000000000000000000000000000000CB
S2144000F0000000000000000000000000190440005E
S214400100190440001904400010B5054C237833B953
S214400110044B13B10448AFF300800123237010BD95
S214400120D809002000000000BCAC40000C4B43B196
S2144001300C480D4910B5AFF300800C48036823B94E
S21440014010BD0A48036833B97047094B002BF7D0F7
S214400150BDE810401847064B002BF5D0184700BFA7
S21440016000000000BCAC4000DC090020BCAC4000F5
S2144001700000000080B582B000AF834B4FF4981269
S2144001805A60814B00225A636FF07F437B6002E0E7
S2144001907B68013B7B607C4B1B6A03F48073002BBF
S2144001A002D07B68002BF3D17B68002B01D1002363
S2144001B0E5E0754B05225A636FF07F437B6002E0B3
S2144001C07B68013B7B60704B1B6A03F48073002B9B
S2144001D002D07B68002BF3D17B68002B01D1002333
S2144001E0CDE0694B00225A636FF07F437B6002E0AC
S2144001F07B68013B7B60644B1B6A03F48073002B77
S21440020002D07B68002BF3D17B68002B01D1002302
S214400210B5E05D4B38225A636FF07F437B6002E067
S2144002207B68013B7B60584B1B6A03F48073002B52
S21440023002D07B68002BF3D17B68002B01D10023D2
S2144002409DE0514B01225A636FF07F437B6002E092
S2144002507B68013B7B604C4B1B6A03F48073002B2E
S21440026002D07B68002BF3D17B68002B01D10023A2
S21440027085E0454B2A225A636FF07F437B6002E05D
S2144002807B68013B7B60404B1B6A03F48073002B0A
S21440029002D07B68002BF3D17B68002B01D1002372
S2144002A06DE0394B31225A636FF07F437B6002E04A
S2144002B07B68013B7B60344B1B6A03F48073002BE6
S2144002C002D07B68002BF3D17B68002B01D1002342
S2144002D055E02D4B0B225A636FF07F437B6002E064
S2144002E07B68013B7B60284B1B6A03F48073002BC2
S2144002F002D07B68002BF3D17B68002B01D1002312
S2144003003DE0214BFF225A636FF07F437B6002E063
S2144003107B68013B7B601C4B1B6A03F48073002B9D
S21440032002D07B68002BF3D17B68002B01D10023E1
S21440033025E0154BFF225A636FF07F437B6002E057
S2144003407B68013B7B60104B1B6A03F48073002B79
S21440035002D07B68002BF3D17B68002B01D10023B1
S2144003600DE0094B02221A6000BF074B1B6A03F0E0
S2144003700103002BF9D00548054B98470123184642
S2144003800837BD4680BD00BF00C600404CA74000B1
S214400390811A400080B582B000AF164B7B60164B8A
S2144003A03B607A683B689A420CD007E03B681A1D6F
S2144003B03A607A68111D796012681A603B680F4A85
S2144003C09342F3D30E4B3B6004E03B681A1D3A6001
S2144003D000221A603B680B4A9342F6D30A4B7B6076
S2144003E00A4A7B6823F07F039360094B9847094B82
S2144003F09847FEE7BCAC400000000020D80900202B
S214400400D8090020A42A00200000400000ED00E0AB
S214400410BD564000710B400080B400AFFEE70000C0
S21440042080B400AF034B044A1A6000BFBD465DF877
S214400430047B70470000002000127A0080B483B02E
S21440044000AF0346FB7197F90730002B0BDB0949D9
S21440045097F907305B09FA7902F01F02012000FA8B
S21440046002F241F8232000BF0C37BD465DF8047BFE
S214400470704700BF00E100E080B483B000AF0346A1
S2144004803960FB7197F90730002B0ADB0D4997F965
S21440049007303A68D2B21201D2B20B4483F8002336
S2144004A00AE00949FB7903F00F03043B3A68D2B2ED
S2144004B01201D2B20B441A7600BF0C37BD465DF827
S2144004C0047B704700E100E000ED00E090B587B0A7
S2144004D002AFF860B9607A603B60204B98474FF0B7
S2144004E0804380221A604FF080434FF4C4425A60E3
S2144004F03B6A00933B687A68B968F868184CA0472E
S2144005004FF0804380225A6100211020154B9847B7
S2144005101020154B98474FF0804300221A604FF04A
S21440052080424FF080431B6843F0010313604FF056
S21440053080424FF080431B6843F0100313604FF037
S21440054080424FF080431B6843F004031360074823
S214400550074B984700BF1437BD4690BD2D06400058
S21440056075054000790440003D04400068A74000FF
S214400570811A400080B487B000AFF860B9607A60F6
S2144005803B60294B7B614FF08042FB68C2F80831E4
S2144005904FF080423B6AC2F80C314FF08042FB6815
S2144005A0C2F818314FF080423B6AC2F81C314FF017
S2144005B080427B68C2F800314FF080423B6AC2F806
S2144005C004314FF080427B68C2F810314FF08042D1
S2144005D03B6AC2F81431BA687B699A607B693A6AAA
S2144005E0DA60BA687B699A617B693A6ADA613A6826
S2144005F07B691A607B693A6A5A603A687B691A6115
S2144006007B693A6A5A614FF0804340F20112C3F860
S21440061020217B6940F201121A6200BF1C37BD469A
S2144006205DF8047B704700BF0002004080B400AF16
S214400630144A144B5B6843F4C02343F01F035360D3
S214400640104A104B1B6F23F4C02323F00303136799
S2144006500C4A0C4B5B6F23F4C02323F00303536711
S214400660084A084B1B6F43F01C031367054A054BAB
S2144006705B6F23F01C03536700BFBD465DF8047BE9
S214400680704700BF000E0E4080B400AF074A074BCD
S2144006901B6843F470031360BFF34F8FBFF36F8F35
S2144006A000BFBD465DF8047B704700BF88ED00E0A4
S2144006B0F0B595B000AFF860B96087ED010AC7EDB8
S2144006C0000AD7ED007A9FEDCA7AC7EE876AC94B13
S2144006D016EE900A984703460C4644EC103BC64B31
S2144006E0984751EC100BC54C4FF00002C44BA04746
S2144006F003460C4618462146C24CB9A3D3E900230C
S214400700A04703460C4619462246BF4B08461146AC
S21440071098470346FB64D7ED137A9FEDBC7AC7EE45
S214400720876AB44B16EE900A984703460C4644EC4C
S214400730113B9FEDAD0BB64B984752EC101BB24B9E
S2144007400846114698470346BB64DFEDA96A97ED15
S214400750007AC6EE877AB7EE007A77EE877AA54BB0
S21440076017EE900A984703460C4644EC103BA24BC3
S214400770984751EC100BA14C4FF00002A04BA047FD
S21440078003460C46184621469E4C95A3D3E90023C3
S214400790A04703460C46194622469B4B0846114640
S2144007A09847034607EE903AF1EE677AC7ED117A1E
S2144007B0D7ED117A9FED957AC7EE876A8D4B16EE88
S2144007C0900A984703460C4644EC113B9FED860B37
S2144007D08F4B984752EC101B8B4B08461146984758
S2144007E003463B6497ED007ADFED816AC7EE267AD2
S2144007F0B7EE007A77EE877AC7ED0F7AD7ED017AB3
S2144008009FED847A27EE877ADFED836AC7EE267AF5
S214400810C7ED0E7A97ED0E7ADFED806AC7EE267A40
S214400820B7EE007A37EE677A7D4BD3ED007A67EE07
S214400830277AC7ED0D7A6F4BB86B984703460C4640
S21440084044EC103B774B984756EC105B694BB86CC2
S214400850984702460B46694C28463146A047034611
S2144008600C461D462646D7ED0D7A77EEA77A614BA5
S21440087017EE900A984702460B46624C2846314689
S214400880A04703460C46194622465F4B084611468B
S214400890984703463B63574BB86B984703460C460E
S2144008A044EC103B5F4B984756EC105B514B386C12
S2144008B0984702460B46514C28463146A0470346C9
S2144008C00C461D4626464B4BF86B984702460B4651
S2144008D04A4C28463146A04703460C461D46264607
S2144008E0D7ED0D7A77EEA77A424B17EE900A9847E7
S2144008F002460B46434C28463146A04703460C4624
S21440090019462246404B0846114698470346FB6226
S21440091097ED0C7AD7ED127A67EE277AC7ED0A7A0A
S2144009204FF000037B62D7ED0C7AB1EE677AD7EDD5
S214400930127A67EE277AC7ED087AD7ED0C6A97EDFC
S214400940127AC6EE877AB7EE007A77EE877AC7EDE8
S214400950077A284BB86B984703460C4644EC103B46
S214400960314B984751EC100B244C4FF000024FF09F
S2144009704043A04703460C4619462246224B0846AB
S214400980114698470346BB61D7ED0C6A97ED127A3D
S214400990C6EE877AB7EE007A77EE677AC7ED057AC5
S2144009A0D7ED0A6A97ED077AC6EE877AFB68C3EDFD
S2144009B0007AFB680433D7ED096A97ED077AC6EEEE
S2144009C0877AC3ED007AFB680833D7ED086A97ED5F
S2144009D0077AC6EE877AC3ED007AFB680C3325E0CB
S2144009E01655B5BBB16B0240000000000000244025
S2144009F00000FA44014F4000411E4000A94F40000D
S214400A0000003440FD51400059554000000020424F
S214400A10491F4000DB0FC94000803B47DB0F494180
S214400A200C000020811D4000C11C4000D7ED067A16
S214400A30F1EE676A97ED077AC6EE877AC3ED007ADD
S214400A40FB681033D7ED057AF1EE676A97ED077AC3
S214400A50C6EE877AC3ED007AD7ED0B7AB1EE677AA9
S214400A60D7ED107A67EE277AC7ED0A7A4FF0000383
S214400A707B6297ED0B7AD7ED107A67EE277AC7ED53
S214400A80087AD7ED0B6A97ED107AC6EE877AB7EEFE
S214400A90007A77EE877AC7ED077A304BB86B98477F
S214400AA003460C4644EC103B2D4B984751EC100B3C
S214400AB02C4C4FF000024FF04043A04703460C46F4
S214400AC019462246284B0846114698470346BB61BE
S214400AD0D7ED0B6A97ED107AC6EE877AB7EE007AB6
S214400AE077EE677AC7ED057AD7ED0A6A97ED077A0B
S214400AF0C6EE877ABB68C3ED007ABB680433D7ED91
S214400B00096A97ED077AC6EE877AC3ED007ABB6826
S214400B100833D7ED086A97ED077AC6EE877AC3EDB5
S214400B20007ABB680C33D7ED067AF1EE676A97ED2C
S214400B30077AC6EE877AC3ED007ABB681033D7EDE6
S214400B40057AF1EE676A97ED077AC6EE877AC3EDC7
S214400B50007A00BF5437BD46F0BD00BF014F40008D
S214400B60C11C4000A94F40005955400000000000FD
S214400B7090B5ADF67C4D00AF564B9847564B9847D0
S214400B80564BD3ED007A564B93ED007A07F63C422F
S214400B9007F54563F0EE470AB0EE670A1146184679
S214400BA0504B984707F62C4307F5456207F54160DA
S214400BB001214D4CA04707F61C4307F63C4207F67A
S214400BC004400121484CA047484B07F66442136056
S214400BD0474B01221A70474B01221A70464B01229E
S214400BE01A70464B1B78DBB2002B00F0EB80444B70
S214400BF01B78DBB2002B09D1424BC7F8743C424B02
S214400C00C7F8703C414BC7F86C3C08E0404BC7F80F
S214400C10743C404BC7F8703C3F4BC7F86C3C07F6FB
S214400C2004034FF480721946D7F8740C3B4B984730
S214400C300023A7F86A3C30E0B7F86A0CB7F86A3C7D
S214400C40B7F86A2CB7F86A1C07F6040489002144F2
S214400C5091ED007A07F66441D1ED007A67EE277A87
S214400C603C1D91002144C1ED007A391D92000A4492
S214400C70116807F204449A002244116007F20442C5
S214400C809B0013441A6807F6040183000B441A605D
S214400C90B7F86A3C0133A7F86A3CB7F86A3CFF2BC2
S214400CA0CAD907F6040207F6040107F541604FF477
S214400CB080731B4CA04707F2044207F2044107F634
S214400CC004404FF48073164CA0470023A7F8683CB6
S214400CD05FE000BF21044000450F400004000020B4
S214400CE008000020B1064000254A40003E1D913FC6
S214400CF0F8090020F7090020F9090020F40900202F
S214400D00F509002070260020701200207016002082
S214400D10700E0020700A00207022002071474000AC
S214400D203D4A4000B7F8683CB7F8682C07F604011F
S214400D3092000A4492ED007AB7F8682C391D92006A
S214400D400A44D2ED007A77EE277A07F604029B0033
S214400D501344C3ED007AB7F8683CB7F8682C07F23E
S214400D60044192000A4492ED007AB7F8682C391D87
S214400D7092000A44D2ED007A77EE277A07F20442D0
S214400D809B001344C3ED007AB7F8683C0133A7F8DC
S214400D90683CB7F8683CFF2BC4D907F604034FF409
S214400DA08072D7F8701C1846534B984707F2044396
S214400DB04FF48072D7F86C1C18464F4B98474F4BF1
S214400DC000221A704E4B1B78DBB2002B20D04D4BC6
S214400DD0D3ED007A4C4B93ED007A07F63C4207F58C
S214400DE04563F0EE470AB0EE670A11461846474B91
S214400DF09847434B00221A70424B1A68444B1046A1
S214400E00984703460C461A46234642484249884776
S214400E10424B1B78DBB2002B40D03A4BD3ED007AE6
S214400E20394B93ED007A07F63C4207F54563F0EE02
S214400E30470AB0EE670A11461846344B9847374B78
S214400E4000221A70304B93ED007ADFED356AC7EE1C
S214400E50267AB7EE007A77EE877A2D4B17EE900A11
S214400E60984703460C4644EC103B2E4B984751ECB3
S214400E70100B2D4C4FF000022C4BA04703460C465F
S214400E80184621462A4C1AA3D3E90023A047034616
S214400E900C461A46234627481F498847264B1B7848
S214400EA0DBB2002B20D0174BD3ED007A164B93EDD8
S214400EB0007A07F63C4207F54563F0EE470AB0EE87
S214400EC0670A11461846114B98471B4B00221A706A
S214400ED01A4B1A680E4B1046984703460C461A465D
S214400EE0234617480C49884700BF7AE6AFF3008090
S214400EF01655B5BBB16B024021484000F4090020AE
S214400F00F70900200400002008000020B106400039
S214400F10014F40007CA74000A9574000F809002038
S214400F200000FA44411E4000A94F400000003440F3
S214400F30FD51400088A74000F90900200C00002021
S214400F4098A7400090B583B002AF184B9847184B0F
S214400F509847184B4FF025421A60164B4FF4004204
S214400F605A60154B9847154B9847154B9847154B65
S214400F709847154B9847154B9847154B1B681B0DC4
S214400F8003F00F0319461348134B98474FF48073EA
S214400F900093124B124A13491348144CA047144866
S214400FA0144B984700BF0437BD4690BD89064000A5
S214400FB0F90F400050140E409D1540008914400023
S214400FC02D19400051144000DD17400075014000C7
S214400FD088ED00E0A0A74000C11A4000700E002037
S214400FE0701A0020700A002070160020CD044000C1
S214400FF0ACA74000811A400080B485B000AF324BA9
S214401000324A1A60324B334A1A6000BF304B5B6933
S21440101003F08003002BF9D02F4B9B6E03F0800328
S214401020002BF3D02C4B00229A622B4B2B4A9A6211
S21440103000BF294B9B6E03F00203002BF9D0264AD3
S214401040254B1B6B23F0700313634FF40063FB6068
S21440105007E0FB68002B01D101232FE0FB68013B32
S214401060FB601D4B9B6E03F00803002BF1D01A4A21
S214401070194B1B6B23F0030343F0020313634FF437
S2144010800063BB6007E0BB68002B01D1012315E07D
S214401090BB68013BBB60104B9B6E03F00803002B04
S2144010A0F1D00B4BDB6923F4F0537B60084A7B6836
S2144010B043F0B44343F4C853D3610023184614376F
S2144010C0BD465DF8047B7047000A0E4000050004EC
S2144010D010140E40080000A500040E40013F4D0EBF
S2144010E080B400AF434B1B78002B3CD14FF080437D
S2144010F09B6803F08003002B35D03F4B1B78DBB258
S214401100002B16D14FF080433C4AC3F818214FF0CD
S21440111080434FF48072C3F81C214FF08043384A16
S214401120C3F810214FF080434FF48072C3F8142167
S21440113015E04FF08043334AC3F818214FF0804300
S2144011404FF48072C3F81C214FF080432E4AC3F8F8
S21440115010214FF080434FF48072C3F81421254B82
S21440116001221A7040E0234B1B78012B3CD14FF0F4
S21440117080439B6803F08003002B35D01E4B1B78C2
S214401180DBB2002B15D1214B1B68214A9A611F4BBD
S2144011901B684FF48072DA611C4B1B681D4A1A614B
S2144011A01A4B1B684FF480725A61134B01221A7017
S2144011B014E0164B1B68184A9A61144B1B684FF490
S2144011C08072DA61114B1B68144A1A610F4B1B6818
S2144011D04FF480725A61084B00221A70054B002269
S2144011E01A700F4B01221A7000BFBD465DF8047B93
S2144011F0704700BFF6090020F50900207016002051
S214401200701A002070220020701E0020100000205F
S214401210700A0020700E00207012002070260020F9
S214401220F409002080B584B000AF784B9B69FB7111
S214401230FB79612B05D0FB79662B02D0FB79712BAD
S21440124006D1734AFB795371724B00221A70D2E072
S214401250FB792F2B16D9FB79392B13D86D4B1B787E
S214401260DBB2032B0ED86B4B1B78DBB21946684AB1
S214401270FB795354674B1B78DBB20133DAB2654BCC
S2144012801A70B8E0FB796B2B40F0B580614B1B7849
S214401290DBB2002B00F0AF805E4B1B78DBB21A4609
S2144012A05B4B002199545A4B5B79DBB2612B3FD1A3
S2144012B05748594B984707EE900AF8EEE77AC7ED3D
S2144012C0037AD7ED037A9FED557AF4EEC77AF1EEBE
S2144012D010FA01DD524BFB60D7ED037AB7EE007A89
S2144012E0F4EEC77AF1EE10FA02D54FF07E53FB606B
S2144012F04C4BD3ED007A97ED037A77EE677AFDEEA6
S214401300E77A17EE903A002BB8BF5B4207EE903A6A
S214401310F8EEE77AB3EE027AF4EEC77AF1EE10FA18
S21440132066DD404AFB6813603F4B01221A705FE05F
S214401330374B5B79DBB2662B3ED13548364B984708
S21440134007EE900AF8EEE77AC7ED027AD7ED027A12
S2144013509FED367AF4EEC77AF1EE10FA01D5344BAB
S214401360BB60D7ED027A9FED337AF4EEC77AF1EEA2
S21440137010FA01DD304BBB60304BD3ED007A97ED71
S214401380027A77EE677AFDEEE77A17EE903A002B10
S214401390B8BF5B4207EE903AF8EEE77AB3EE027AD1
S2144013A0F4EEC77AF1EE10FA22DD244ABB681360E9
S2144013B0234B01221A701BE0154B5B79DBB2712B75
S2144013C016D11348144B984707EE900AF8EEE77A82
S2144013D01C4BC3ED007A1B4B93ED007ADFED1A6A87
S2144013E0C7EE267A174BC3ED007A184B01221A70C7
S2144013F0074B00225A71054A044B1B6843F480731E
S214401400136000BF1037BD4680BD00BF00020240DB
S214401410FC090020020A0020A95640000080BB4577
S2144014200080BB4508000020F809002000007A43F1
S21440143000007A4300007A4500007A450400002008
S214401440F70900200C00002000007A44F90900202B
S21440145080B400AF0A4A0A4BD3F8E43123F00103C4
S214401460C2F8E431064B074AC3F8E421044B012294
S214401470C3F81C2100BFBD465DF8047B704700BF23
S21440148000020E400054414D80B500AF204A204B2C
S214401490D3F8E43023F00103C2F8E4301C491C4B77
S2144014A0D3F8E4201B4B1343C1F8E4301A4A1A4BD6
S2144014B0D3F8E43023F00103C2F8E4301649164B63
S2144014C0D3F8E420134B1343C1F8E430104B4FF0ED
S2144014D0FF325A60104B4FF0FF325A600C4A0C4BAA
S2144014E01B6843F0F0431360094A094B1B6943F0FD
S2144014F0F0431361064A064B5B6B43F0F04353637D
S2144015000020064B98470120054B984700BF80BDFA
S214401510000E0E40004F495000100E40251540006A
S2144015206115400080B483B000AF0346FB71FB7981
S214401530002B06D0094A094B1B6B43F080531363BC
S21440154005E0064A054B5B6B43F08053536300BF90
S2144015500C37BD465DF8047B704700BF000E0E405A
S21440156080B483B000AF0346FB71FB79002B06D0F6
S214401570094A094B1B6B43F00063136305E0064AB8
S214401580054B5B6B43F00063536300BF0C37BD46AF
S2144015905DF8047B704700BF000E0E4080B400AF7D
S2144015A02B4A2B4BD3F8E43023F00103C2F8E43047
S2144015B02749274BD3F8E420264B1343C1F8E430A1
S2144015C0234B254A1A61224B4FF400725A60204B37
S2144015D004225A6400BF1E4B9B6E03F40073002B1C
S2144015E0F9D01B4A1A4B1B6843F400731360184A21
S2144015F0174B5B6843F480535360154B44221A657F
S21440160000BF134B9B6E03F48053002BF9D0104A57
S2144016100F4B1B6843F4805313600D4B4FF48042CE
S2144016205A600B4B40F654129A6500BF084B9B6EAF
S21440163003F48043002BF9D0054A054B1B6843F45E
S2144016408043136000BFBD465DF8047B704700BF13
S21440165000040E4000434D50001B010080B485B08E
S21440166000AF7860104BFB60104B1B68002B02D11C
S2144016700E4B0F4A1A600D4B1B68BB60BA687B68FE
S2144016801A44FB689A4202DD4FF0FF3306E0074BF0
S2144016901A687B681344054A1360BB6818461437BB
S2144016A0BD465DF8047B7047FC7F0220040A00209C
S2144016B0A85C002080B483B000AF78604FF0FF3362
S2144016C018460C37BD465DF8047B704780B483B03F
S2144016D000AF786039603B684FF400525A60002390
S2144016E018460C37BD465DF8047B704780B483B01F
S2144016F000AF7860012318460C37BD465DF8047B82
S214401700704780B485B000AFF860B9607A60002357
S21440171018461437BD465DF8047B704780B586B0E2
S21440172000AFF860B9607A6000237B61FB68012BEC
S2144017301ED0FB68022B1BD0FB68032B18D04FF043
S214401740FF3319E00E4B1A680E4B1868BB68591CDD
S214401750B9601B78194690470346002B02DA4FF0D3
S214401760FF3309E07B6901337B617B68013B7B602B
S2144017707B68002BE6D17B6918461837BD4680BD8E
S214401780742A0020782A002080B586B000AFF86022
S214401790B9607A6000237B61FB68002B12D04FF063
S2144017A0FF3313E00B4B1B680B4A1268B9681046B0
S2144017B09847BB680133BB607B6901337B617B68BC
S2144017C0013B7B607B68002BECDC7B691846183756
S2144017D0BD4680BD702A0020782A002080B500AF24
S2144017E0114B9847114B03221A60114A104BD3F8FD
S2144017F0E43023F00103C2F8E4300D4B0D4AC3F841
S214401800E4200B4B0C4A1A61094B0C4A1A60084BF1
S21440181002225A64064B4FF498125A600848094B05
S214401820984700BF80BD00BF4918400000C0004038
S21440183000C600400049575401011300240000012F
S214401840DCA74000811A400080B400AF124A124B19
S214401850D3F8903043F4C063C2F890300E4A0E4B33
S2144018605B6E43F4C06353660B4A0B4B5B6843F4B2
S214401870C0635360084A084B1B6F23F4C06313676A
S214401880054A054B5B6F23F4C063536700BFBD46F4
S2144018905DF8047B704700BF000E0E4080B483B0F6
S2144018A000AF0346FB7197F90730002B0BDB094965
S2144018B097F907305B09FA7902F01F02012000FA17
S2144018C002F241F8232000BF0C37BD465DF8047B8A
S2144018D0704700BF00E100E080B483B000AF03462D
S2144018E03960FB7197F90730002B0ADB0D4997F9F1
S2144018F007303A68D2B21201D2B20B4483F80023C2
S2144019000AE00949FB7903F00F03043B3A68D2B278
S2144019101201D2B20B441A7600BF0C37BD465DF8B2
S214401920047B704700E100E000ED00E080B500AFCA
S2144019301E4B98471E4B01221A60012109201D4B61
S214401940984709201C4B98471C4B01229A601B4A1B
S2144019501A4BD3F8E43023F00103C2F8E430174BB7
S214401960174AC3F8E420154B82221A62134B154AD5
S2144019705A60124B50221A60134B104A1A60134B8F
S214401980134A1A60134B1B689B6800211846124B7B
S2144019909847104B1B685B68002118460E4B9847CB
S2144019A00E480F4B984700BF80BD00BFE51940006A
S2144019B000000240D91840009D1840000002024036
S2144019C000415355C0080800782A0020742A002099
S2144019D01D1A4000280000207D584000F0A7400017
S2144019E06D58400080B400AF0B4A0B4B5B6843F029
S2144019F00C035360084A084B1B6F23F00C03136715
S214401A00054A054B5B6F23F00C03536700BFBD468A
S214401A105DF8047B704700BF00100E4080B483B072
S214401A2000AF78600B46FB70084AFB78D36100BF76
S214401A30064B5B6903F00203022BF9D100231846DC
S214401A400C37BD465DF8047B704700BF000202407D
S214401A5080B483B000AF0346FB71084AFB79D3617C
S214401A6000BF064B5B6903F00203022BF9D100BFAF
S214401A700C37BD465DF8047B704700BF000202404D
S214401A8090B585B000AF78600023FB7309E0FB7B20
S214401A907A6813441B781846074B9847FB7B0133FC
S214401AA0FB73FC7B7868054B984703469C42EED315
S214401AB000BF1437BD4690BD511A4000415A400001
S214401AC00FB480B586B000AF07F124037B603B6A55
S214401AD07B61B4E07B691B781846604B98477B690E
S214401AE001337B617B691B78252B03D07B691B7890
S214401AF0002BEFD17B691B78002B00F0A6807B691A
S214401B0001337B617B691B78583B202B00F2948025
S214401B1001A252F823F000BF191C4000391C4000B7
S214401B20391C4000391C4000391C4000391C40001C
S214401B30391C4000391C4000391C4000391C40000C
S214401B40391C40009D1B4000B31B4000391C400020
S214401B50391C4000391C4000391C4000391C4000EC
S214401B60391C4000391C4000391C4000391C4000DC
S214401B70391C4000CF1B4000391C4000391C400037
S214401B80391C4000EB1B4000391C4000391C40000B
S214401B90391C4000391C4000FD1B40007B681A1D64
S214401BA07A601B683B613B69DBB218462B4B984713
S214401BB042E07B681A1D7A601B683B610A213869DF
S214401BC0274B984703461846264B984734E07B6891
S214401BD01A1D7A601B683B6108213869204B98477C
S214401BE0034618461F4B984726E07B681A1D7A60C6
S214401BF01B68FB60F8681B4B98471DE07B681A1D06
S214401C007A601B683B6110213869154B984703463C
S214401C101846144B98470FE07B681A1D7A601B687D
S214401C203B61102138690E4B9847B860BB6841331A
S214401C3018460C4B984700BF7B6901337B617B6934
S214401C401B78002B7FF44EAF00E000BF00BF183774
S214401C50BD46BDE8804004B0704700BF511A400002
S214401C60691C4000811A400080B485B000AF78609F
S214401C703960114BFB60FB6800221A70FB68013B21
S214401C80FB603A687B68B3FBF2F102FB01F29B1AF9
S214401C900A4AD25CFB681A703B687A68B2FBF3F378
S214401CA07B607B68002BE9D1FB6818461437BD463D
S214401CB05DF8047B704700BF390A002014000020FE
S214401CC000B551EC100B2C4A21F00043934285B0EE
S214401CD020DD2A4A934209DD10EE102A0B4602F018
S214401CE0AFFF41EC100B05B05DF804FB684601F011
S214401CF02FFA00F00300012828D0022815D060B340
S214401D0001209DED021B9DED000B02F091FA51EC77
S214401D10100BE6E79FED161B01F00EFD51EC100B85
S214401D2041EC100B05B05DF804FB9DED021B9DEDEC
S214401D30000B01F001FD53EC102B10EE100A03F1DE
S214401D40004141EC100B05B05DF804FB9DED021B15
S214401D509DED000B02F06CFAEDE79DED021B9DED4C
S214401D60000B01F0E9FC51EC100BBAE7AFF3008032
S214401D700000000000000000FB21E93FFFFFEF7F6E
S214401D8000B551EC100B2C4A21F00043934285B02D
S214401D9027DD2A4A934209DD10EE102A0B4602F050
S214401DA04FFF41EC100B05B05DF804FB684601F0B0
S214401DB0CFF900F00300012827D002281DD068B3D1
S214401DC09DED021B9DED000B01F0B6FC53EC102B75
S214401DD010EE100A03F1004141EC100B05B05DF81F
S214401DE004FB00209FED121B02F022FA51EC100B70
S214401DF041EC100B05B05DF804FB01209DED021B85
S214401E009DED000B02F014FAE0E79DED021B9DED00
S214401E10000B01F091FC51EC100BC2E701209DED48
S214401E20021B9DED000B02F003FA51EC100BB8E7D5
S214401E300000000000000000FB21E93FFFFFEF7FAD
S214401E402DE9F0432DED028B8BB055EC104B00F096
S214401E500BFA384BB0EE408AF0EE608A93F9006099
S214401E60731C0DD022462B462046294603F036FBEF
S214401E7030B9002200232046294603F025FB40B116
S214401E80B0EE480AF0EE680A0BB0BDEC028BBDE837
S214401E90F083294B0890CDE90245CDE904450193EE
S214401EA0B6B9264F4FF0604620462946002200230A
S214401EB0CDE9066703F0E0FA98B30223009368463C
S214401EC002F022FBA8B1089BC3B99DED068BD7E76D
S214401ED0DFF870904FF00008204629460022002385
S214401EE0CDE9068903F0C8FA68B102239E42009302
S214401EF0E5D103F0DDFB22230360E4E703F0D8FBE3
S214401F00089B0360E1E70123022E00930BD103F008
S214401F10CFFB212303600A4802F0FAFA8DED060B48
S214401F20D1E701230093684602F0EEFA0028F2D18A
S214401F30EDE700BF2500002010A84000FFFFEFC7D8
S214401F4028AA40000000F0FF2DE9F04F2DED028B4F
S214401F50DFF80CA38BB057EC106B55EC114B00F030
S214401F6087FB9AF90080B0EE408AF0EE608AB8F1BE
S214401F70FF3F34D022462B462046294603F0AEFA91
S214401F80834660BB32463B463046394603F0A6FAA7
S214401F908146002840F09F80304639460022002384
S214401FA003F06AFA20B3002200232046294603F0B5
S214401FB063FA8346002867D09FED9F7B0122A44B9F
S214401FC0CDF820900092CDE90267CDE904458DED2D
S214401FD0067B0193B8F1000F49D09FED998BB0EE88
S214401FE0480AF0EE680A0BB0BDEC028BBDE8F08FF5
S214401FF0B0EE480AF0EE680A02F0ECF98046002897
S21440200000F084804FF000084FF0000951EC180BA8
S21440201042464B4603F030FA0028E0D047EC106BBF
S21440202002F0D8F90028DAD045EC104B02F0D2F98D
S2144020300028D4D09AF90030854A01920421002223
S214402040022BCDE90267CDE90445CDE9068900912A
S214402050089203D0684602F057FA60B903F028FBAE
S2144020602223036007E09FED747B8DED067B684678
S21440207002F04AFA50B3089B1BB103F019FB089BC9
S21440208003609DED068BAAE745EC104B02F0A2F9E3
S2144020900028A4D0002200232046294603F0F6F963
S2144020A000289CD06A4A9AF90030CDF820B0012129
S2144020B0CDE90267CDE904458DE80600002BD2D075
S2144020C064490020022BCDE90601D0D103F0F0FA96
S2144020D021230360CFE7002200232046294603F051
S2144020E0CBF900283FF47BAF9FED558B584BCDF88E
S2144020F020B00122B8F1020FCDE90267CDE90445D0
S2144021008DED068B8DE80C00B1D168E747EC106B7F
S21440211002F060F900283FF475AF45EC104B02F032
S21440212059F900283FF46EAF53EC182B18EE100AFE
S214402130194603F0D3F9002861D103239AF90080A9
S2144021400093434B0890CDE90267CDE904450193DF
S214402150B8F1000F2DD1DFF80C914FF06048002207
S214402160002330463946CDE9068903F08FF900282A
S2144021703FF470AF0022384B2046294602F014FF49
S21440218004460D4645EC104B02F0CAF9204653EC87
S214402190102B294603F070F970BB304B9AF900803B
S2144021A04FF06042CDE90623B8F1020F7FF452AFFC
S2144021B054E79FED257B00220023304639468DEDBF
S2144021C0067B03F063F90028EED00022224B20461F
S2144021D0294602F0E9FE04460D4645EC104B02F057
S2144021E09FF9204653EC102B294603F045F918B9C1
S2144021F0184B0022CDE906239AF90080D4E7144B09
S2144022009AF90090CDF820800122CDE90267CDE909
S21440221004458DE80C00B9F1000F3FF424AF0022CE
S21440222000231046194602F0E9FFB9F1020FCDE946
S21440223006013FF44BAF1AE7000000000000000024
S214402240000000000000F03F000000000000F07FAB
S21440225014A840000000F0FF0000E03FFFFFEFC77B
S21440226025000020FFFFEF472DE9F04F51EC100B03
S214402270B1F5801F85B00B4659DA10EE102A21F0D2
S2144022800044224300F0F8800029C0F280810022FA
S214402290DD4B02F089FEDD4A0B4693426FF0350770
S2144022A04ADCC3F3130505F5152606F6647606F4F0
S2144022B0801686F07F5282F4401242EA05011C15D1
S2144022C00022D34B02F0BCFCAB1CA4F2FF34C3F399
S2144022D013033C44022B04EB165482468B464FF0C5
S2144022E0000232DC002303F0C7F8002800F0CF805D
S2144022F0002C00F05881204602F0F0FDACA3D3E954
S214402300002306460F4602F04FFEABA3D3E9002358
S21440231004460D463046394602F046FE02460B4617
S2144023202046294602F08EFC41EC100B0AE0B74AE4
S21440233093424FF00007B4DD02460B4602F082FCA3
S21440234041EC100B05B0BDE8F08F4FF0804302F033
S21440235079FC02460B465046594602F04FFF064669
S21440236020460F4602F0BAFD3246CDE900013B4614
S21440237030463946CDE9026702F016FE02460B4665
S2144023808046894602F010FE8DA3D3E90023064618
S2144023900F4602F009FE8CA3D3E9002302F052FC5C
S2144023A032463B4602F000FE89A3D3E9002302F002
S2144023B049FC32463B4602F0F7FD87A3D3E90023AB
S2144023C002F040FC42464B4602F0EEFD84A3D3E9C1
S2144023D00023804689463046394602F0E5FD82A312
S2144023E0D3E9002302F02EFC32463B4602F0DCFDE9
S2144023F07FA3D3E9002302F025FC32463B4602F099
S214402400D3FD0B4602464946404602F01BFCA5F566
S214402410C223C5F5D725A3F27A4351351D43002D77
S214402420804689465CDD00227A4B5046594602F08B
S214402430BBFD52465B4602F0B7FD06460F46002CF3
S2144024406ED132463B464046494602F0FBFBDDE94C
S214402450022302F0A9FD02460B463046394602F0FA
S214402460EFFB02460B465046594602F0E9FB41EC6C
S214402470100B05B0BDE8F08F00220023002066490F
S21440248002F0BCFE41EC100B05B0BDE8F08F5AA33D
S214402490D3E900235046594602F086FD02460B46D5
S2144024A000205C4902F0CCFB524606460F465B468F
S2144024B05046594602F078FD02460B4630463946AD
S2144024C002F072FD06460F46002C40F0A7800246FA
S2144024D00B465046594602F0B3FB41EC100B31E731
S2144024E0002C00F0AF8032A3D3E90023DDE90001E1
S2144024F002F05AFD42464B4604460D465046594663
S21440250002F09EFBDDE9022302F04EFD2AA3D3E94A
S214402510002306460F46DDE9000102F045FD21E0B6
S21440252023A3D3E90023DDE9000102F03DFD324656
S2144025303B4604460D464046494602F083FBDDE9ED
S214402540022302F031FD1CA3D3E9002380468946CE
S214402550DDE9000102F028FD02460B4640464946AA
S21440256002F070FB02460B463046394602F068FBE6
S21440257052465B4602F064FB02460B46204629461E
S21440258002F05EFB41EC100B05B0BDE8F08F10EE9C
S214402590102A0B4602F054FB0022002302F02EFEC7
S2144025A041EC100BCEE69FED160BCBE6AFF300806A
S2144025B00000E0FE422EE63F763C7935EF39EA3DB4
S2144025C044523EDF12F1C23FDE03CB966446C73F1D
S2144025D0599322942449D23F935555555555E53F36
S2144025E09FC678D0099AC33FAF788E1DC571CC3F41
S2144025F004FA97999999D93F555555555555D53F0C
S214402600000000000000000000005043FFFFEF7F86
S2144026100000F03F0000E03F000050C3204602F0BC
S2144026205DFC0FA3D3E900238046894602F0BCFC3C
S2144026300DA3D3E9002304460D464046494602F022
S214402640B3FC8FE702460B465046594602F0F8FA6E
S214402650DDE9022302F0A8FC03E700BFAFF30080E9
S2144026600000E0FE422EE63F763C7935EF39EA3D03
S2144026702DE9F04F51EC110B21F0004858EA0004C8
S21440268093B03ED053EC102B714E23F00044B4422E
S21440269010EE10AA1D462DDC894611EE10EA28D011
S2144026A0B04527DC6A4EB04500F08380002D1646C4
S2144026B01F46CDE90001C0F281804FF0000BBEF10D
S2144026C0000F2FD1624B984500F09580614B98459E
S2144026D068D0B9F1804F00F0D1835F4B994521D146
S2144026E0002D1FDB47EC106B13B0BDE8F04F00F039
S2144026F055BF6AB104F1404404F5801454EA0A0315
S21440270008D15449002041EC100B13B0BDE8F08FBF
S214402710A045C7DD514813B0BDE8F04F01F0F8BE04
S2144027204FF0000B47EC106B01F04CFE51EC100BD9
S214402730BAF1000F1AD124B1464B25F040429A42D6
S21440274014D1B9F1000FC0F2D383002DDBDA04F1C7
S214402750404404F5801454EA0B0300F0AF84BBF108
S214402760010FD0D101F100431946CCE7ED0F05F13A
S214402770FF3A5BEA0A0353D0394B984576DD03F1BE
S2144027800473984540F30684364B9C4253DDB9F1BA
S214402790000F53DD2CA3D3E900231046194602F060
S2144027A003FCB0E7B9F1000FC0F25A843046394610
S2144027B0A9E7BEF1000F3FF479AF9BE72A4B984557
S2144027C02BDCA3F1547398457FF777AF4FEA285335
S2144027D0A3F2FF33142B40F35984C3F134032EFA8B
S2144027E003F202FA03F39E457FF467AF02F001025C
S2144027F0C2F1020B63E704F1404303F5801353EA4A
S2144028000A033FF47EAF174B9C4240F33E83B9F138
S214402810000F13DBDDE9000175E74FF0020B4EE7D2
S21440282032463B461046194602F00AFA02460B4626
S21440283002F0E4FC67E7B9F1000FABDB00200021B3
S21440284061E700BFAFF300809C7500883CE4377EAC
S2144028500000F07F0000F03F0000E03F28AA400064
S2144028600000E041FFFFEF3FFFFF3F43B4F5801F0E
S2144028704FF0000205DAD64B02F096FB6FF03402BA
S2144028800C462315D34EC4F31304A3F2FF3313446C
S21440289044F07F55B4421A460D9345F4401540F334
S2144028A02E83CD4B9C4240F30D849FEDB37B8DED44
S2144028B0087B8DED0E7B9FEDB27B13468DED067B40
S2144028C001330D93A5F580154FF00008DDE906238A
S2144028D02946CDE90A0102F0B3F9DDE906230646AA
S2144028E00F46DDE90A0102F0ADF902460B4600202C
S2144028F0BA4902F083FC03460C46CDE91034024642
S2144029000B463046394602F04FFB6B1043F00053FF
S21440291003F5002303EB08050A4600230146CDE9EC
S21440292002120293DDE902890024CDE904122B4607
S21440293022464046494602F037FB02460B463046A2
S214402940394602F07DF9DDE9062306460F46204665
S214402950294602F075F902460B46DDE90A0102F007
S2144029606FF942464B4602F01FFB02460B46304686
S214402970394602F065F9DDE9102302F015FBDDE982
S2144029800445CDE9060122462B462046294602F05C
S2144029900BFB7DA3D3E9002304460D4602F004FB5F
S2144029A07BA3D3E9002302F04DF922462B4602F0E2
S2144029B0FBFA79A3D3E9002302F044F922462B46DA
S2144029C002F0F2FA76A3D3E9002302F03BF922465E
S2144029D02B4602F0E9FA74A3D3E9002302F032F959
S2144029E022462B4602F0E0FA71A3D3E9002302F018
S2144029F029F9224606460F462B462046294602F02F
S214402A00D3FA02460B463046394602F0CDFA4246E5
S214402A1004460D464B46DDE9040102F013F9DDE9B4
S214402A20062302F0C1FA22462B4602F00BF9424634
S214402A3006460F464B464046494602F0B5FA002247
S214402A40674BCDE90A0102F0FDF832463B4602F0FC
S214402A50F9F802980D46044622462B46404649461B
S214402A6002F0A2FA0022804689465D4B204629465F
S214402A7002F0E6F8DDE90A2302F0E2F802460B46E9
S214402A803046394602F0DCF8DDE9042302F08CFAE1
S214402A90224606460F462B46DDE9060102F084FA3A
S214402AA002460B463046394602F0CCF806460F46FC
S214402AB002460B4640464946CDE9048902F0C2F834
S214402AC002983DA3D3E9002304460D4602F06CFA73
S214402AD0DDE90423804689462046294602F0B0F8C0
S214402AE002460B463046394602F0AAF834A3D3E9EC
S214402AF0002302F059FA34A3D3E9002306460F46D2
S214402B002046294602F050FA02460B4630463946E1
S214402B1002F098F8DDE90E2302F094F806460D9888
S214402B200F4602F0DBF9324604460D463B46404629
S214402B30494602F087F8DDE9082302F083F822468A
S214402B402B4602F07FF8029822462B46CDE902013A
S214402B5002F076F8DDE9082302F072F842464B466A
S214402B6002F06EF802460B463046394602F068F8E8
S214402B708046894636E000BF0000000000000000A6
S214402B80000000000000F03FEF4E454A287ECA3F56
S214402B9065DBC9934A86CD3F01411DA96074D13F8C
S214402BA04D268F515555D53FFFAB6FDBB66DDB3F9E
S214402BB0033333333333E33F000000E009C7EE3FCF
S214402BC0FD033ADC09C7EE3FF5015B14E02F3EBE3D
S214402BD0000040438E98030079B60B000000F03F9B
S214402BE0000008400BF1FF3353EA0A0300F07B81F4
S214402BF09FEDC97B8DED067BDDE900AB53465C4619
S214402C00CDE9003400230093DDE9004550462246D6
S214402C102B46594602F014F8DDE9022302F0C4F9C7
S214402C20524606460F465B464046494602F0BCF9C9
S214402C3002460B463046394602F004F822468046A5
S214402C4089462B46DDE90201CDE9048902F0ACF95C
S214402C500B46024606460F464046494601F0F2FFFE
S214402C60C74B994204460D468A4640F3188101F107
S214402C703F4303F5E003034340F0FA81A8A3D3E9BA
S214402C800023DDE9040101F0DDFF32468046894637
S214402C903B462046294601F0D3FF02460B464046B7
S214402CA0494602F011FC002840F0E281A8464FEA6F
S214402CB028534FF48012A3F2FE3342FA03F35344F0
S214402CC0C3F30A52AF4DA2F2FF321541C3F31304C9
S214402CD023EA05010020C2F1140B44F48014BAF133
S214402CE0000F02460B4644FA0BFB30463946B8BF47
S214402CF0CBF1000B01F0A4FF02460B4606460F46FA
S214402D00DDE9040101F09EFF4FEA0B5A0D46002410
S214402D1085A3D3E900232046294602F045F93246EA
S214402D20804689463B462046294601F089FF0246B2
S214402D300B46DDE9040101F083FF7DA3D3E90023C0
S214402D4002F032F97CA3D3E9002306460F4620461C
S214402D50294602F029F902460B463046394601F02C
S214402D6071FF06460F4602460B464046494601F06E
S214402D7069FF42464B4604460D4601F061FF024657
S214402D800B463046394601F05BFF22468046894670
S214402D902B462046294602F007F969A3D3E90023CB
S214402DA006460F4602F000F967A3D3E9002301F078
S214402DB047FF32463B4602F0F7F865A3D3E90023C7
S214402DC001F040FF32463B4602F0EEF862A3D3E9FC
S214402DD0002301F035FF32463B4602F0E5F860A39B
S214402DE0D3E9002301F02EFF32463B4602F0DCF8E2
S214402DF002460B462046294601F022FF06460F466D
S214402E0002460B462046294602F0CEF80022CDE97F
S214402E1000014FF080433046394601F011FF02462C
S214402E200B46DDE9000102F0E9F9424606460F4648
S214402E304B462046294602F0B7F842464B4601F03C
S214402E4001FF02460B463046394601F0F9FE22465F
S214402E502B4601F0F5FE02460B4600204A4901F09B
S214402E60EFFE8A44BAF5801F02460B46C0F23A810E
S214402E705146DDE9062302F097F844E432463B46E5
S214402E803046394602F090F83DE4B9F1000FBFF6FF
S214402E90D5ACDDE90034184604F1004133E43B4B41
S214402EA021F00048984540F30081394B0B440343DA
S214402EB00CD132463B4601F0C3FE02460B46DDE9E6
S214402EC0040102F0EDFA00283FF4F1AEDDE9060118
S214402ED025A3D3E9002302F067F823A3D3E9002310
S214402EE002F062F80FE49FED227B8DED067B83E6D1
S214402EF002460B460020244902F080F925E49FED67
S214402F001E7B8DED087B8DED0E7B9FED037B4FF09A
S214402F1000088DED067BD9E4000000000000F03F7D
S214402F20FE822B654715973C00000000432EE63F87
S214402F30EF39FAFE422EE63F396CA80C615C20BEA3
S214402F40D0A4BE726937663EF16BD2C541BDBB3E6A
S214402F502CDE25AF6A56113F93BDBE166CC1663F48
S214402F603E5555555555C53F59F3F8C21F6EA501F8
S214402F70000000000000F0BF00000000000000005D
S214402F80FFFF8F40FFFF0F000000F03FFFCB904059
S214402F9000346F3F6A4B9C427FF74DAC694B9C4276
S214402FA03FF7F5AB0022674B01F04AFE54A3D3E946
S214402FB0002304460D4601F0F7FF53A3D3E9002350
S214402FC0804689462046294601F0EEFF0022CDE99C
S214402FD002015D4B2046294601F0E6FF02460B46BD
S214402FE04BA1D1E9000101F02BFE22462B4601F011
S214402FF0DBFF02460B460020544901F021FE2246E4
S2144030002B4606460F462046294601F0CDFF02468F
S2144030100B463046394601F0C7FF3FA3D3E90023AD
S21440302001F0C2FF02460B46DDE9020101F008FE50
S21440303002460B4604460D464046494601F002FE0F
S21440304042464B460020CDE9020101F0F9FD02461A
S2144030500B462046294601F0F3FD80468946C1E5E9
S21440306032463B460020374902F0C8F8FFF74BBBD4
S214403070DDE906012AA3D3E9002301F095FF28A342
S214403080D3E9002301F090FFFFF73DBBBEF1000FF0
S2144030907FF446ABC3F1140348FA03F202FA03F393
S2144030A0984527D0F346FFF711BB284B98453FF786
S2144030B0FEADDDE900239246934628E602460B46DF
S2144030C0FFF7B0BB9FED187B8DED087B9FED187B1F
S2144030D08DED0E7B9FED187B4FF480288DED067BA3
S2144030E0FFF7F4BB584643EC102B01F0ADFA51EC19
S2144030F0100BBEE602F00102C2F1020BFFF7E6BA81
S214403100000000604715F73F44DF5DF80BAE543EC5
S214403110555555555555D53FFE822B654715F73FB6
S2144031209C7500883CE4377E0000004003B8E23FD0
S21440313006D0CF43EBFD4C3E000000000000F83FB9
S214403140FEFFEF3F0000F03F0000D03F0000E03FB2
S2144031502DE9F04753EC102B9D4923F000478F4252
S21440316090B040F391809B498F421C46824629DCB2
S214403170002C194610EE100A8BA3D3E9002340F327
S214403180B18101F05DFD944B9F4204460D4600F030
S214403190918087A3D3E9002301F052FD02460B46F7
S2144031A0CAE900232046294601F04AFD80A3D3E918
S2144031B0002301F045FD0125CAE90201284610B06A
S2144031C0BDE8F08785498F4240F3918084498F421D
S2144031D065DC3D15A5F21645A7EB0551104616468B
S2144031E00F4602F091F901F079FE80468946424644
S2144031F04B4630463946CDE90A8901F021FD00228A
S214403200784B01F0D1FE8946804602F07DF901F008
S21440321065FE06460F4632463B4640464946CDE9A1
S2144032200C6701F00DFD00226E4B01F0BDFE002242
S2144032300023CDE90E0102F01FF9002800F070814E
S214403240002330463946002202F016F9002814BF03
S21440325001230223644A019202212A4600910AA8C9
S214403260514600F0ADFB002C054614DADAF804208F
S214403270DAF80C3002F1004203F100434542CAF846
S2144032800420CAF80C3006E080ED000B0025002430
S214403290C0E902450025284610B0BDE8F08710EE8C
S2144032A0100A194601F0CCFC0025CAE90201CAE919
S2144032B00001F0E740A3D3E9002301F0C1FC40A39E
S2144032C0D3E900230D46044601F0BAFC02460B46FD
S2144032D0CAE900232946204601F0B2FC38A3D3E9C8
S2144032E0002301F0ADFC0125CAE90201D3E701F055
S2144032F069F859EC108B10EE100A33A3D3E900237B
S214403300494601F051FE0022384B01F09BFC02F08A
S214403310FBF8054601F0E2FD23A3D3E90023CDE9FF
S214403320060101F041FE02460B464046494601F082
S21440333087FC1FA3D3E90023CDE90201DDE906019E
S21440334001F032FE1F2D80468946CDE9048951DCC6
S214403350274B6A1E53F822309F424BD002460B46FC
S214403360DDE9020101F06CFC80468946CAE9008925
S21440337042464B46DDE9020101F062FCDDE90423EA
S21440338001F05EFC002CCAE9020184DA09F100442F
S21440339001F100436D42CAF80080CAF80440CAF8FA
S2144033A00800CAF80C3076E700004054FB21F93F8D
S2144033B03163621A61B4D03D0000601A61B4D03DFA
S2144033C07370032E8A19A33B83C8C96D305FE43FF0
S2144033D0FB21E93F7BD90240FB21F93FFB213941E4
S2144033E0FFFFEF7F0000704198A840000000E03FDC
S2144033F018A84000DDE90423DDE9020101F020FCC5
S2144034003F15C1F30A53FB1A80468946102BCAE97A
S2144034100089ADDD58A3D3E90023DDE9060101F0BC
S214403420C3FD8046894602460B46DDE9020101F0AF
S21440343007FC02460B46DDE90201CDE9082301F010
S214403440FFFB42464B4601F0FBFB4DA3D3E900236E
S21440345080468946DDE9060101F0A6FD42464B4618
S21440346001F0EEFB0B46CDE904010246DDE908011A
S21440347001F0E6FBC1F30A53FF1A80468946312F16
S214403480CAE900896CDD41A3D3E90023DDE90601E2
S21440349001F08AFDDDE9088906460F4602460B46DE
S2144034A04046494601F0CCFB02460B46404649465C
S2144034B0CDE9022301F0C4FB32463B4601F0C0FB97
S2144034C034A3D3E9002306460F46DDE9060101F0A2
S2144034D06BFD32463B4601F0B3FB02460B46CDE958
S2144034E004233DE701F0AEFB274B9F4204460D46C2
S2144034F018D01FA3D3E9002301F0A4FB02460B46D5
S214403500CAE900232946204601F09AFB18A3D3E9CE
S214403510002301F097FB4FF0FF35CAE90201BAE6F7
S214403520032397E614A3D3E9002301F08BFB14A3EF
S214403530D3E900230D46044601F084FB02460B46C1
S214403540CAE900232946204601F07AFB0CA3D3E9BA
S214403550002301F077FB4FF0FF35CAE902019AE6F7
S2144035609DED087B8DED027B02E700BFAFF3008048
S2144035703163621A61B4D03D0000601A61B4D03D38
S2144035807370032E8A19A33BFB21F93F0000002EDF
S2144035908A19A33BC14920259A837B392DE9F041FE
S2144035A0634855EC104BA84300F09580002D2B4601
S2144035B010EE102A70DD2F157DD0A7F2FF37C3F32B
S2144035C01303F90743F4801361D403EBD27100264A
S2144035D00B447F105200B64616204FF400110EEBF7
S2144035E001049C424FEAD2754FEA420203DC1B1BA1
S2144035F004EB010E0E44013805EB43034FEA51013C
S214403600EDD1844620244FF0004109E020D003EB62
S214403610D275013C4FEA51012B444FEA420220D07A
S214403620734501EB0C05F1DD002D05EB010C09DBC4
S214403630F0469542A3EB0E0300D9013B521B0844CB
S214403640C646E4E7BCF1000FF2DB0EF10108F0E7F6
S2144036509542DCD8002D05EB010C4EDB9846002346
S214403660ECE7134302D0421C4BD0013040087110A7
S214403670F30701F17F5101F5001148BF40F00040CB
S21440368001EB0753024643EC102BBDE8F0815B008C
S21440369003EBD273520098E710EE101A25F0004064
S2144036A0014328D0ADBB2F46D30A153F5205002B09
S2144036B0FAD0DE0228D4002400E004465B00DD0297
S2144036C004F10100F9D5C0F1200122FA01F10B43C3
S2144036D03F1B824071E710EE102A2B4610EE100A70
S2144036E0294601F061FC22462B4601F0ABFA41EC3C
S2144036F0100BBDE8F081BDE8F081BCF1000FA4DA04
S214403700ACE701362046B2E7002020214FF0FF34D8
S214403710DBE710EE102A2B462046294601F090FAA9
S21440372002460B4601F06AFD41EC100BBDE8F08105
S2144037300000F07F000000002DE9F04F57EC106BC2
S2144037402DED028BB0EE418AF0EE618A27F00049FB
S214403750B9F1795F83B072DA10EE100A394601F09B
S214403760D3FE002800F0F68032463B4630463946C7
S21440377001F01AFC7CA3D3E9002304460D4601F071
S21440378013FC7BA3D3E9002301F05CFA22462B46C8
S21440379001F00AFC78A3D3E9002301F051FA22464F
S2144037A02B4601F001FC76A3D3E9002301F04AFA48
S2144037B022462B4601F0F8FB73A3D3E9002301F021
S2144037C03FFA22462B4601F0EFFB71A3D3E90023D4
S2144037D001F038FA22462B4601F0E6FB82468B463D
S2144037E00022714B2046294601F0DEFB52468046B9
S2144037F089465B462046294601F0D6FB53EC182BFB
S21440380004460D463046394601F0CEFB02460B468E
S2144038102046294601F014FA02460B4640464946E1
S21440382001F00EFA02460B460020604901F008FA05
S21440383041EC100B03B0BDEC028BBDE8F08F10EEF0
S214403840102A10EE100A3B46394601F0ADFB46A35F
S214403850D3E9002304460D4601F0A6FB44A3D3E972
S214403860002301F0EFF922462B4601F09DFB42A3D0
S214403870D3E9002301F0E4F922462B4601F094FBFD
S2144038803FA3D3E9002301F0DDF922462B4601F0A1
S2144038908BFB3DA3D3E9002301F0D2F922462B4609
S2144038A001F082FB3AA3D3E9002301F0CBF92B4683
S2144038B0224601F079FB3E4B994582468B468FDD8A
S2144038C03C4B99453DDC0022A9F5001300203749C2
S2144038D09046994601F0B4F9CDE900010022324BFA
S2144038E02046294601F060FB42464B4601F0A8F9C7
S2144038F05246804689465B462046294601F054FBA0
S21440390053EC182B04460D463046394601F04CFB26
S21440391002460B462046294601F092F902460B46DF
S2144039204046494601F08CF902460B46DDE9000167
S21440393001F086F941EC100B03B0BDEC028BBDE8FC
S214403940F08F9FED157B4FF000088DED007BDFF884
S2144039506890C3E79FED120B03B0BDEC028BBDE849
S214403960F08F00BFAFF30080D43888BEE9FAA8BD18
S214403970C4B1B4BD9EEE213EAD529C804F7E923E79
S2144039809015CB19A001FA3E7751C1166CC1563F2F
S2144039904C5555555555A53F000000000000E73FE3
S2144039A0000000000000F03F0000E03F0000F03F55
S2144039B03233D33F0000E93F0000D23F0000000012
S2144039C02DE9F04FADF51B7DA34CA49EA34D54F8B6
S2144039D0264007942646D41E85FB0475E417C4EBA0
S2144039E0A50424EAE4741D460A93631CA3EB8303F0
S2144039F0013D02EBC30306932B460B940395651BD0
S214403A00F418049008911AD42C4400260027013458
S214403A100DF18808DDF8949208E059F8250001F089
S214403A205DFA0135A542E8E8020108D0002DF4DA37
S214403A30013530463946A542E8E80201F6D1079BF3
S214403A40002BC0F2EB83079B03F1010B0A9B22A9D4
S214403A50DB001A4601EB03090093049B0DF5E47A5C
S214403A6019460AEBCB0B01EB0208039B002BC0F276
S214403A700183049C4D460026002775E90223F4E89E
S214403A80020101F091FA02460B463046394601F0F3
S214403A90D9F8444506460F46EFD1EAE80267DA45CC
S214403AA009F10809E1D107990098049C009101F1B9
S214403AB08043013B9B0020441A1F83460EA80244C5
S214403AC003440C920D93009A9AA901EBC203002A74
S214403AD053E9284529DD0DF5E47A0AEBC2080DF1D5
S214403AE0340900225E4B2046294601F05DFA01F07B
S214403AF00BFD01F0F3F900225A4B06460F4601F043
S214403B0053FA02460B462046294601F099F801F042
S214403B10FBFC78E9022349F8040F3946304601F0A9
S214403B2091F8D04504460D46DBD1DDF8189045ECBB
S214403B30104B484600F088FD55EC104B00224FF0E5
S214403B407F5310EE100A294601F02EFA41EC100B76
S214403B5000F04AFC002251EC100B434B01F024FAD3
S214403B6002460B462046294601F06AF80D460446B2
S214403B7001F0CAFC804601F0B1F90B4602462946E0
S214403B80204601F05DF84B46002B06460F4640F3B4
S214403B90FA80009A0EA9013AC9F1180351F822504A
S214403BA045FA03F101FA03F30EA8EB1A40F8223067
S214403BB0C9F11705884443FA05F5002D6EDD009BD4
S214403BC0002B08F1010840F374820E9C002C40F054
S214403BD01B83009B012B40F394820EAA012352F8CC
S214403BE0044F002C00F08882581C0EAAC4F1807442
S214403BF042F82340009A824219DD0EAA0EAC52F8D3
S214403C0020106FF07F42511A44F82010009902337A
S214403C1099420CDD1046009A0EA901EB830301EB96
S214403C2082011A68821A43F8042B8B42F9D1069B0C
S214403C30002B1BDD069B012B4FF0010440F0418218
S214403C40009B5A1E0EAB0EA953F82230C3F3160340
S214403C5041F8223041E200BFE0A94000ABAAAA2AC0
S214403C600000703E0000704100002040022D15D13B
S214403C7032463B460020944900F0E2FF06460F4697
S214403C8006989FED8D0B00F0DFFC3046394653EC2E
S214403C90102B00F0D5FF022506460F4600220023D3
S214403CA03046394601F0E8FB002800F03B82009A97
S214403CB0079B501E83420FDC02F18043013B0EAA55
S214403CC00D9C02EB8303002253F80419A34242EAF8
S214403CD00102F9D1002A67D1079B0EAA013B52F890
S214403CE02330002B40F01C820C9A012352F8041912
S214403CF001330029FAD0009AD31802F1010A9A45F6
S214403D0009933DDC009B0A990B9A0B4409990AEBF0
S214403D100208994622AB08F1804803EBC9098B1884
S214403D20A59A08F1FF3802EB880872AA02EBCA0A85
S214403D30A59A02EB8303009358F8040F01F0CEF8DF
S214403D40039B002BE9E802014FF000064FF0000706
S214403D5011DB049C4D4675E90223F4E8020101F0AC
S214403D6023F902460B463046394600F06BFF5C4569
S214403D7006460F46EFD1009B9845EAE80267DBD13E
S214403D80099B00939FE606D1009B0EAA013B52F882
S214403D902350ED1511E700224C4B01F08BFB002819
S214403DA040F07281054679E70EA9039551F8203018
S214403DB00699CDF8248018390246009006916BB9D2
S214403DC000F18043013B0EA800EB830353F804093F
S214403DD0013A18390028F9D00092069106989FEDCE
S214403DE0360B00F031FC009B002B55EC104BC0F21C
S214403DF0FC81DA0072A901EB020B06920EAA02EBD6
S214403E008306DFF8CC904FF000080BF10807043625
S214403E1056F8040D01F062F822462B4601F0C4F82D
S214403E204B4667E9020142462046294601F0BCF867
S214403E300EAB9E4204460D46EAD14AACDDF81C90D5
S214403E4004944FF0000AB9F1000FC0F22F81DFF85A
S214403E5084805D461AA1D1E900010026002700248F
S214403E6003E0544510DCF8E80201F5E8022301F0CF
S214403E709BF802460B463046394600F0E3FE0134D6
S214403E80A14506460F46ECDA049B03EBCA03ABF1AA
S214403E90080BC3E9006770AB9B450AF1010AD2D113
S214403EA0A49B049C032B00F28D80DFE813F0C9002E
S214403EB092009200150000BF000000000000F03F96
S214403EC000000040FB21F93F0000F03F0000E03FCB
S214403ED00000703EA8A94000009B002B40F3828162
S214403EE0069A04EB020ADAE9008902F1080525443D
S214403EF00DF5987B1AED027B42464B4651EC170B6C
S214403F008DED047B00F09EFE06460F4602460B46AD
S214403F10DDE9040100F094FE42464B4600F092FE76
S214403F2065E902015D45B046B9466AE90267E1D1F6
S214403F30009B012B40F35681069BE518D5E9008986
S214403F4003F1080B04EB0B0A15ED027B42464B4689
S214403F5051EC170B8DED007B00F074FE06460F46C5
S214403F6002460B46DDE9000100F06AFE4B4642463B
S214403F7000F068FE6AE902014EAB5345B046B946CA
S214403F8065E90267E0D10020002104EB0B0575E9E6
S214403F90022300F057FEAA45F9D1039B002B00F000
S214403FA00B816268E368089F2568A4683D6002F15B
S214403FB0004203F1004301F100417A60FB60BC60BF
S214403FC038617961099B03F007000DF51B7DBDE85C
S214403FD0F08F069D083525440020002175E9022310
S214403FE000F030FEA542F9D1039B002B00F0D380B1
S214403FF0089E024601F1004386E80C000B46024646
S214404000D4E9000100F01CFE009B002B0BDD4CADFC
S2144040100124F5E8022300F015FE009B0134A3427C
S214404020F7DA039B13B101F100431946089BC3E935
S2144040300201099B03F007000DF51B7DBDE8F08FDC
S214404040069D083500200021254475E9022300F02E
S214404050F9FDAC42F9D1039B13B101F10043194677
S214404060089BC3E90001099B03F007000DF51B7D83
S214404070BDE8F08F00260027EAE80267DA4509F136
S21440408008097FF4F2AC0EE5009B002B08F101080E
S214404090C8BF02253FF799AD32463B4600206149EE
S2144040A000F0CEFD022506460F46F7E5002600271F
S2144040B0EAE6069B002B27DD0024069B012B3FF4F7
S2144040C0BFAD022B09D1009B5A1E0EAB0EA953F86A
S2144040D02230C3F3150341F82230022D7FF4DEADC3
S2144040E032463B4600204F4900F0AAFD06460F46A2
S2144040F0002C3FF4D3ADC3E50099013399427FF4D9
S2144041006EAD069B002BD8DC022D7FF4C7AD324641
S2144041103B460020434900F093FD06460F46BDE56A
S2144041200123E8E5069B0395584247EC106BCDF813
S214404130248000F089FA55EC104B00223A4B10EEE2
S214404140100A294601F0B6F9002841D00022374B24
S2144041502046294600F028FF01F0D6F9064600F032
S214404160BDFE0022304B00F01FFF02460B462046A5
S214404170294600F065FD01F0C7F90099069B0A46FE
S2144041801833013206930B460EA9009241F82300DD
S21440419041F8226022E6089B0246C3E900010B462E
S2144041A0D4E9000100F04CFD009B002B3FF72FAFF9
S2144041B0089BC3E902013CE7D4E90067D4E902233F
S2144041C0089DC5E90401C5E90067C5E90223F9E68B
S2144041D02946204601F098F9009A0EA941F8220097
S2144041E0FCE54AAC00200021D7E6A49B032B3FF613
S2144041F0E9AE01A252F823F0174240000F424000B9
S2144042000F424000E341400001200023EDE400203F
S21440421000214AACE8E6002000211CE70A9BDB00B0
S214404220009340E40000F03F000070410000703E04
S2144042302DE9F04F55EC104B2DED028BB0EE418A38
S214404240F0EE618A25F00043B3F1795F83B0824691
S21440425007DA10EE100A294601F056F9002800F059
S2144042608E8022462B462046294600F09DFE064676
S2144042700F4602460B462046294600F095FE47A3C9
S214404280D3E90023804689463046394600F08CFE06
S21440429044A3D3E9002300F0D3FC32463B4600F06B
S2144042A083FE42A3D3E9002300F0CCFC32463B46D3
S2144042B000F07AFE3FA3D3E9002300F0C1FC32466B
S2144042C03B4600F071FE3DA3D3E9002300F0BAFC64
S2144042D0CDE90001BAF1000F37D000222E4B51EC49
S2144042E0180B00F061FEDDE9002382468B4640460F
S2144042F0494600F059FE02460B465046594600F0E5
S2144043009FFC32463B4600F04FFE53EC182B00F025
S21440431097FC1FA3D3E9002306460F46404649466E
S21440432000F042FE02460B463046394600F08AFC14
S21440433002460B462046294600F082FC41EC100B14
S21440434003B0BDEC028BBDE8F08F02460B4630460C
S214404350394600F029FE0EA3D3E9002300F070FC96
S21440436042464B4600F020FE22462B4600F06AFCB2
S21440437041EC100B03B0BDEC028BBDE8F08F45EC72
S214404380104B03B0BDEC028BBDE8F08FAFF300805E
S214404390495555555555C53F0000E03F7CD5CF5A49
S2144043A03AD9E53DEB9C2B8AE6E55A3E7DFEB15771
S2144043B0E31DC73ED561C119A0012A3FA6F81011DA
S2144043C01111813F53EC102B23F0004343EC102B8C
S2144043D0704700BF10EE903A43F0004000F5801062
S2144043E0C00F70470000000051EC100BC1F30A5399
S2144043F02DE9F041A3F2FF35132D0C460F4610EE83
S214404400106A1DDC002D43DB3D4B43FA05F801EAFC
S2144044100803034319D038A3D3E9002300F012FC65
S2144044200022002301F050F820B1002C49DB27EA97
S214404430080400262346324643EC102BBDE8F081A4
S214404440332D06DDB5F5806F32D041EC100BBDE85C
S214404450F081A3F213434FF0FF3828FA03F810EA2E
S214404460080FF2D024A3D3E9002300F0EBFB002290
S214404470002301F029F80028DCD0002C27DB3C463E
S21440448026EA08062346324643EC102BBDE8F08168
S21440449019A3D3E9002300F0D5FB0022002301F046
S2144044A013F80028C6D0002C1CDB00263446C1E793
S2144044B010EE102A0B4600F0C5FB41EC100BBDE891
S2144044C0F0814FF4801343FA05F52F44AFE7142DDF
S2144044D010D00123C5F1340503FA05F5AE1928BFFF
S2144044E0FF18CCE724F00042064B324318BF1C4668
S2144044F000269FE70137C2E79C7500883CE4377E7C
S214404500FFFF0F000000F0BF0020704700000000D3
S2144045109FED010B704700BF000000000000F87FD1
S214404520F0B553EC102BC3F30A56A6F2FF3013280F
S21440453083B019464FEAD37410EE105A2FDC002889
S21440454049DB3E4E064103EA060717432CD0760861
S21440455033401D430CD04FF48023132821EA06062F
S21440456043FA00F141EA06010CBF4FF00045002532
S214404570334800EBC4042A46D4E9004510462B468F
S214404580224600F05FFBCDE9000122462B46DDE9DE
S214404590000100F055FB41EC100B03B0F0BD332892
S2144045A006DDB0F5806F40D043EC102B03B0F0BD75
S2144045B0A6F213464FF0FF30F0400242F4D04008D7
S2144045C00242D5D04FF0804325EA000043FA06F673
S2144045D046EA0005CCE723F000401043E4D0C3F39E
S2144045E01300104347420743154D5E0C3F0B07F43C
S2144045F00023760405EBC40243EA0601D2E90067CD
S21440460010EE100A32463B4600F01CFBCDE9000196
S2144046103B463246DDE9000100F012FB21F0004344
S21440462043EAC47141EC100BC0E710EE100A19467D
S21440463000F008FB41EC100BB8E700BFFFFF0F008F
S214404640F0A940000000000053EC102B70B5C3F3F7
S2144046500A541946054614BB23F0004111432AD09C
S21440466019460022384B394E10EE100A00F09CFCDA
S214404670B54202460B461FDBC1F30A54363C2C4477
S21440468040F2FE7084421FDC002C2DDD21F0FF41FD
S21440469021F4E00141EA045343EC102B70BD40F294
S2144046A0FF708442EBD110EE100A194600F0CAFAA9
S2144046B041EC100B70BD70BD1FA3D3E9002300F082
S2144046C073FC41EC100B70BD43EC112B9FED1C0BA3
S2144046D000F040F81AA3D3E9002351EC100B00F089
S2144046E063FC41EC100B70BD14F1350F13DA4CF23D
S2144046F050318D4243EC112BE8DC9FED0F0B00F060
S21440470029F80DA3D3E9002351EC100B00F04CFC24
S21440471041EC100B70BD21F0FF4121F4E00136342E
S21440472041EA0453104619460022094B00F03CFC6F
S21440473041EC100B70BD00BF59F3F8C21F6EA501C7
S2144047409C7500883CE4377E00005043B03CFFFF39
S2144047500000903C53EC102B11EE900A23F00041E1
S21440476000F0004041EA000343EC102B704700BFC6
S21440477070B496082FD09FED297A00F1100401F10D
S2144047801003354654ED047AF8EEE77A013D67EEBD
S214404790877A04F1100443ED047A54ED077AF8EE74
S2144047A0E77A03F1100367EE877A43ED077A54ED14
S2144047B0067AF8EEE77A67EE877A43ED067A54EDA6
S2144047C0057AF8EEE77A67EE877A43ED057AD9D12F
S2144047D036013144304412F003021DD0D0ED007A49
S2144047E09FED0E7AF8EEE77A013A67EE877AC1EDEA
S2144047F0007A11D0D0ED017AF8EEE77A012A67EE1A
S214404800877AC1ED017A07D0D0ED027AF8EEE77AE2
S21440481067EE877AC1ED027A70BC704700000030C0
S2144048202DE9F84F5FEA92092DED048B90468346BA
S2144048308A467ED09FED7A9A00F1100401F1100569
S2144048404E46F6EE008ABEEE008A6FF0004754ED04
S214404850047A67EE897AF5EEC07AF1EE10FAD4BFA4
S214404860B0EE487AB0EE687A77EE277A17EE900A7E
S21440487000F0C2FEB1EBE07F18BF87EAE17045F872
S214404880100C54ED037A67EE897AF5EEC07AF1EEB5
S21440489010FAD4BFB0EE487AB0EE687A77EE277A50
S2144048A017EE900A00F0A8FEB1EBE07F18BF87EA4B
S2144048B0E17045F80C0C54ED027A67EE897AF5EE15
S2144048C0C07AF1EE10FAD4BFB0EE487AB0EE687A0D
S2144048D077EE277A17EE900A00F08EFEB1EBE07F77
S2144048E018BF87EAE17045F8080C54ED017A67EE88
S2144048F0897AF5EEC07AF1EE10FAD4BFB0EE487A77
S214404900B0EE687A77EE877A17EE900A00F074FE7B
S214404910B1EBE07F87EAE17378D0013E45F8043C8E
S21440492004F1100405F1100591D14FEA0919CA4463
S214404930CB4418F0030865D0DBED007A9FED387A5B
S21440494067EE877AFEEE006AF5EEC07AF1EE10FA70
S214404950B6EE007AD8BFB0EE667A77EE277A17EED4
S214404960900A00F049FEB1EBE07F1CBF6FF00040BC
S21440497080EAE170B8F10108CAF8000042D0DBEDE9
S214404980017A9FED277A67EE877AFEEE006AF5EEAB
S214404990C07AF1EE10FAB6EE007AD8BFB0EE667A7C
S2144049A077EE277A17EE900A00F026FEB1EBE07F0E
S2144049B01CBF6FF0004080EAE170B8F1010FCAF802
S2144049C004001FD0DBED027A9FED157A67EE877AFA
S2144049D0FEEE006AF5EEC07AF1EE10FAB6EE007A18
S2144049E0D8BFB0EE667A77EE277A17EE900A00F0D8
S2144049F003FEB1EBE07F1CBF6FF0004080EAE17041
S214404A00CAF80800BDEC048BBDE8F88F013E45F8B7
S214404A10040C04F1100405F110057FF418AF84E788
S214404A200000004F10B58260016004460A01184637
S214404A30002100F06BFE606010BD00BF2DE9F0471E
S214404A40D0E901564FEA930C03F0030E4FEA0C19D7
S214404A50076802EB090A0EF1FF381436103516EDDA
S214404A60054A16ED042A56ED032A16ED023A56ED8F
S214404A70013A55ED045A15ED035A15ED027A55EDF7
S214404A80017ABCF1000F00F0D48001F1100002F171
S214404A901003644610ED046A62EE254A64EE066A28
S214404AA022EE855A76EEA46A63EE074A76EE856A6B
S214404AB023EEA75A76EEA47A22EE061A77EE857A89
S214404AC062EEA51A43ED047A50ED034A64EE246A7A
S214404AD023EE275A76EE816A63EE875A36EEA17A3F
S214404AE062EE241A37EE057A22EE866A37EE257A8B
S214404AF063EEA77A03ED037A10ED025A64EE055A88
S214404B0063EE076A75EEA15A62EE051A75EE865A8E
S214404B1062EEA44A75EEA65A23EE877A75EEA77A19
S214404B20013C43ED027A50ED015A24EE256A63EECD
S214404B30276A36EE216A00F1100036EE246A03F149
S214404B40100336EE266A36EE077A03ED057AA1D1D3
S214404B5049445346BEF1000F47D0D1ED004A22EEFD
S214404B60256A64EE241A62EE856A36EE215A23EEF2
S214404B70076A35EE265A63EEA77A35EE066A36EEB3
S214404B80276A83ED006AB8F1000F40D091ED015AD4
S214404B9062EE247A65EE041A62EEA56A77EEA15AB2
S214404BA063EE067A75EEA65A23EE877A75EEA77AF6
S214404BB0B8F1010F77EE277AC3ED017A30D0D1ED08
S214404BC0025A25EE022A64EE256A62EEA42A76EEA2
S214404BD0826A27EE833A76EEA26A63EE863A76EEED
S214404BE0836A36EEA37A83ED027A013F45ED045A96
S214404BF005ED035A05ED027A45ED017A06F11406F5
S214404C0005F1100511467FF42AAFBDE8F087F0EEB7
S214404C10477AB0EE655AB0EE467AF0EE645AE4E76C
S214404C20B0EE677AF0EE455AF0EE467AB0EE645A49
S214404C30DBE713468EE700BF81F0004102E000BF8D
S214404C4083F0004330B54FEA41044FEA430594EA07
S214404C50050F08BF90EA020F1FBF54EA000C55EA42
S214404C60020C7FEA645C7FEA655C00F0E2804FEA13
S214404C705454D4EB5555B8BF6D420CDD2C4480EAF5
S214404C80020281EA030382EA000083EA010180EA25
S214404C90020281EA0303362D88BF30BD11F0004F73
S214404CA04FEA01314FF4801C4CEA113102D04042A9
S214404CB061EB410113F0004F4FEA03334CEA1333E4
S214404CC002D0524263EB430394EA050F00F0A780FC
S214404CD0A4F10104D5F1200E0DDB02FA0EFC22FAF7
S214404CE005F2801841F1000103FA0EF2801843FAEB
S214404CF005F359410EE0A5F120050EF1200E012ADC
S214404D0003FA0EFC28BF4CF0020C43FA05F3C01819
S214404D1051EBE37101F0004507D54FF0000EDCF192
S214404D20000C7EEB00006EEB0101B1F5801F1BD33B
S214404D30B1F5001F0CD349085FEA30004FEA3C0C3F
S214404D4004F101044FEA445212F5800F80F09A8035
S214404D50BCF1004F08BF5FEA500C50F1000041EB39
S214404D60045141EA050130BD5FEA4C0C404141EB3D
S214404D70010111F4801FA4F10104E9D191F0000F64
S214404D8004BF01460020B1FA81F308BF2033A3F1E7
S214404D900B03B3F120020CDA0C3208DD02F1140CDE
S214404DA0C2F10C0201FA0CF021FA02F10CE002F119
S214404DB01402D8BFC2F1200C01FA02F120FA0CFC12
S214404DC0DCBF41EA0C019040E41AA2BF01EB04515B
S214404DD0294330BD6FEA04041F3C1CDA0C340EDC59
S214404DE004F11404C4F1200220FA04F001FA02F39C
S214404DF040EA030021FA04F345EA030130BDC4F15A
S214404E000C04C4F1200220FA02F001FA04F340EA4E
S214404E100300294630BD21FA04F0294630BD94F0FF
S214404E20000F83F4801306BF81F480110134013DE6
S214404E304EE77FEA645C18BF7FEA655C29D094EA57
S214404E40050F08BF90EA020F05D054EA000C04BFD5
S214404E501946104630BD91EA030F1EBF00210020C0
S214404E6030BD5FEA545C05D14000494128BF41F05F
S214404E70004130BD14F580043CBF01F5801130BDC3
S214404E8001F0004545F0FE4141F470014FF000004E
S214404E9030BD7FEA645C1ABF194610467FEA655CFF
S214404EA01CBF0B46024650EA013406BF52EA0335A1
S214404EB091EA030F41F4002130BD00BF90F0000F8F
S214404EC004BF0021704730B54FF4806404F13204CB
S214404ED04FF000054FF0000150E700BF90F0000F84
S214404EE004BF0021704730B54FF4806404F13204AB
S214404EF010F0004548BF40424FF000013EE700BF7B
S214404F0042004FEAE2014FEA31014FEA02701FBF0A
S214404F1012F07F4393F07F4F81F06051704792F0DC
S214404F20000F14BF93F07F4F704730B54FF4607456
S214404F3001F0004521F0004120E700BF50EA0102A1
S214404F4008BF704730B54FF000050AE050EA01024E
S214404F5008BF704730B511F0004502D5404261EBBE
S214404F6041014FF4806404F132045FEA915C3FF4FF
S214404F70DCAE4FF003025FEADC0C18BF03325FEA98
S214404F80DC0C18BF033202EBDC02C2F1200300FA4D
S214404F9003FC20FA02F001FA03FE40EA0E0021FA72
S214404FA002F11444C1E600BF70B54FF0FF0C4CF45C
S214404FB0E06C1CEA11541DBF1CEA135594EA0C0F12
S214404FC095EA0C0F00F0DEF82C4481EA030621EA4D
S214404FD04C5123EA4C5350EA013518BF52EA033588
S214404FE041F4801143F4801338D0A0FB02CE4FF03A
S214404FF00005E1FB02E506F00042E0FB03E54FF06A
S2144050000006E1FB03569CF0000F18BF4EF0010E61
S214405010A4F1FF04B6F5007F64F5407404D25FEA5D
S2144050204E0E6D4146EB060642EAC62141EA555110
S2144050304FEAC52040EA5E504FEACE2EB4F1FD0C52
S21440504088BFBCF5E06F1ED8BEF1004F08BF5FEAD0
S214405050500E50F1000041EB045170BD06F0004682
S21440506046EA010140EA020081EA0301B4EB5C042F
S214405070C2BFD4EB0C0541EA045170BD41F4801127
S2144050804FF0000E013C00F3AB8014F1360FDEBF4C
S214405090002001F0004170BDC4F10004203C35DA28
S2144050A00C341BDC04F11404C4F1200500FA05F3AB
S2144050B020FA04F001FA05F240EA020001F000424C
S2144050C021F0004110EBD37021FA04F642EB0601C2
S2144050D05EEA430E08BF20EAD37070BDC4F10C04EC
S2144050E0C4F1200500FA04F320FA05F001FA04F2B0
S2144050F040EA020001F0004110EBD37041F100019C
S2144051005EEA430E08BF20EAD37070BDC4F12005A6
S21440511000FA05F24EEA020E20FA04F301FA05F20E
S21440512043EA020321FA04F001F0004121FA04F2B6
S21440513020EA020000EBD3705EEA430E08BF20EA86
S214405140D37070BD94F0000F0FD101F000464000C0
S21440515041EB010111F4801F08BF013CF7D041EA42
S214405160060195F0000F18BF704703F00046520046
S21440517043EB030313F4801F08BF013DF7D043EA17
S2144051800603704794EA0C0F0CEA135518BF95EACD
S2144051900C0F0CD050EA410618BF52EA4306D1D154
S2144051A081EA030101F000414FF0000070BD50EA73
S2144051B0410606BF1046194652EA430619D094EAFD
S2144051C00C0F02D150EA013613D195EA0C0F05D1E7
S2144051D052EA03361CBF104619460AD181EA03013B
S2144051E001F0004141F0FE4141F470014FF00000F3
S2144051F070BD41F0FE4141F4780170BD70B54FF08E
S214405200FF0C4CF4E06C1CEA11541DBF1CEA13550D
S21440521094EA0C0F95EA0C0F00F0A7F8A4EB0504EF
S21440522081EA030E52EA03354FEA013100F08880E6
S2144052304FEA03334FF0805545EA131343EA1263AF
S2144052404FEA022245EA111545EA10654FEA002664
S2144052500EF000419D4208BF964244F1FD0404F51D
S214405260407402D25B084FEA3202B61A65EB030579
S2144052705B084FEA32024FF480104FF4002CB6EB36
S214405280020E75EB030E22BFB61A754640EA0C00B6
S2144052905B084FEA3202B6EB020E75EB030E22BFF6
S2144052A0B61A754640EA5C005B084FEA3202B6EB37
S2144052B0020E75EB030E22BFB61A754640EA9C00F6
S2144052C05B084FEA3202B6EB020E75EB030E22BFC6
S2144052D0B61A754640EADC0055EA060E18D04FEA84
S2144052E0051545EA16754FEA06164FEAC30343EA24
S2144052F052734FEAC2025FEA1C1CC0D111F4801FF1
S2144053000BD141EA00014FF000004FF0004CB6E7E9
S21440531011F4801F04BF01430020B4F1FD0C88BF88
S214405320BCF5E06F3FF6AFAEB5EB030C04BFB6EB93
S214405330020C5FEA500C50F1000041EB045170BD86
S2144053400EF0004E4EEA113114EB5C04C2BFD4EBB3
S2144053500C0541EA045170BD41F480114FF0000E37
S214405360013C90E645EA060E8DE60CEA135594EAB3
S2144053700C0F08BF95EA0C0F3FF43BAF94EA0C0FB6
S2144053800AD150EA01347FF434AF95EA0C0F7FF42B
S21440539025AF104619462CE795EA0C0F06D152EA7F
S2144053A003353FF4FDAE1046194622E750EA410663
S2144053B018BF52EA43067FF4C5AE50EA41047FF474
S2144053C00DAF52EA43057FF4EBAE12E74FF0FF3CD9
S2144053D006E000BF4FF0010C02E000BF4FF0010CAA
S2144053E04DF804CD4FEA410C7FEA6C5C4FEA430C23
S2144053F018BF7FEA6C5C1BD001B050EA410C0CBF72
S21440540052EA430C91EA030F02BF90EA020F0020D3
S214405410704710F1000F91EA030F58BF994208BF3A
S21440542090422CBFD8176FEAE37040F001007047F7
S2144054304FEA410C7FEA6C5C02D150EA013C07D14E
S2144054404FEA430C7FEA6C5CD6D152EA033CD3D099
S2144054505DF8040B704700BF8446104662468C4693
S2144054601946634600E000BF01B5FFF7B7FF0028C6
S21440547048BF10F1000F01BD4DF808EDFFF7F4FFEF
S2144054800CBF012000205DF808FB00BF4DF808ED7A
S214405490FFF7EAFF34BF012000205DF808FB00BF9D
S2144054A04DF808EDFFF7E0FF94BF012000205DF8BF
S2144054B008FB00BF4DF808EDFFF7CEFF94BF012074
S2144054C000205DF808FB00BF4DF808EDFFF7C4FF6D
S2144054D034BF012000205DF808FB00BF4FEA410CB6
S2144054E07FEA6C5C02D150EA013C0AD14FEA430C99
S2144054F07FEA6C5C02D152EA033C02D14FF00000D6
S21440550070474FF0010070474FEA410212F5001213
S21440551015D211D56FF47873B3EB625212D94FEAB5
S214405520C12343F0004343EA505311F0004F23FA9F
S21440553002F018BF404270474FF00000704750EAF4
S214405540013005D111F0004008BF6FF000407047B1
S2144055504FF00000704700BF4FEA4102B2F1E0430F
S21440556024BFB3F5001CDCF1FE5C0DD901F0004C05
S2144055704FEAC0024CEA5070B2F1004F40EB830055
S21440558008BF20F00100704711F0804F21D113F181
S2144055903872BCBF01F00040704741F480114FEABA
S2144055A05252C2F11802C2F1200C10FA0CF320FA43
S2144055B002F018BF40F001004FEAC1234FEAD32360
S2144055C003FA0CFC40EA0C0023FA02F34FEA4303CA
S2144055D0CCE77FEA625307D150EA01331EBF4FF053
S2144055E0FE4040F44000704701F0004040F0FE406E
S2144055F040F40000704700BF07EE900AF5EEC07A10
S214405600F1EE10FA01D400F009B808B580F0004079
S21440561000F004F8404261EB410108BDD0B5FFF709
S2144056206FFC00220E4B06460F46FFF7BDFC00F00F
S2144056301BF80446FFF742FC00220A4BFFF7B4FC77
S21440564002460B4630463946FFF7FAFA00F00CF8A9
S2144056502346002242EA000210461946D0BD00BF4B
S2144056600000F03D0000F0414A0011D212F5001251
S21440567011D20DD56FF47873B3EB62520ED44FEA65
S214405680C12343F0004343EA505323FA02F07047E5
S2144056904FF00000704750EA013002D14FF0FF3023
S2144056A070474FF0000070470A22002100F0CABA47
S2144056B0014B1868704700BF2800002070B50F4E99
S2144056C00F4D761BB61018BF002405D0013455F890
S2144056D0043B9847A642F9D10A4E0B4D761B05F07F
S2144056E0D7FAB61018BF002406D0013455F8043B4C
S2144056F09847A642F9D170BD70BD00BF9CAC400033
S2144057009CAC4000A4AC40009CAC400070B4860703
S21440571046D0541E002A41D0CAB2034602E014F1D5
S214405720FF343BD303F8012B9D07F8D1032C2ED929
S214405730CDB245EA05250F2C45EA054519D903F1B2
S21440574010022646103E0F2E42F8105C42F80C5CC3
S21440575042F8085C42F8045C02F11002F2D8A4F168
S214405760100222F00F0204F00F041032032C1344F0
S2144057700DD91E462246043A032A46F8045BFAD858
S214405780221F22F003020432134404F003042CB117
S214405790C9B21C4403F8011B9C42FBD170BC704745
S2144057A014460346C2E700BF0FB400B5074983B0AE
S2144057B004AB086853F8042B8168019300F058FA4C
S2144057C003B05DF804EB04B0704700BF280000202B
S2144057D0F0B5054689B008460C4600F031F9AB6B8B
S2144057E0214F04940126441C04A9022203940590E8
S2144057F0AC68069707960191029253B3636E13F016
S214405800010FB4F90C309AB201D1900525D5910418
S21440581006D4626E43F4005322F40052A3816266BB
S214405820284601AA214602F0D9FF636E00280CBF25
S2144058300A254FF0FF35DA0702D4A3899B0502D527
S214405840284609B0F0BDA06D03F090F9284609B08F
S214405850F0BD284602F03AFED0E7A06D03F084F98A
S214405860B4F90C309AB2D2E704AA4000024B014683
S2144058701868FFF7ADBF00BF2800002000290CBF06
S214405880022200224FF4806300F000B82DE9F04376
S214405890614C256883B004460F4690461E4615B1B7
S2144058A0AB6B002B64D0B8F1020F06D0B8F1010FF5
S2144058B000F29F80002EC0F29C80636ED80734D5DD
S2144058C02146284602F0AAFD216B41B104F140036F
S2144058D0994202D0284602F09BFE00232363B4F987
S2144058E00C300022A26162601A063AD423F44A635E
S2144058F023F00303B8F1020FA3811DD001AB6A4623
S2144059002146284603F034F9A3891843A081002E87
S21440591032D1009E304603F0A3F9074600286BD0EC
S214405920A38943F08003A38128E0A3899905C7D4BF
S214405930A06D03F019F9C3E70025616E002604F157
S214405940430243F002030120A660CE07A3812260F3
S2144059502261606101D498053ED5284603B0BDE873
S214405960F0832169284602F053FEB4F90C30BDE7B7
S214405970284602F0ABFD96E7002FCBD0AB6B002B52
S21440598033D0009BB4F90C2027609E421CBF42F4E3
S2144059900062A281B8F1010F04BF42F00102A28169
S2144059A092B212F00803276166610ED0D1071AD56D
S2144059B0656E7642002315F00105A661A36009D006
S2144059C00025284603B0BDE8F083A360656E15F059
S2144059D00105F5D19305C0D4A06D03F0C7F828465D
S2144059E003B0BDE8F083A660F0E7284602F06EFDFF
S2144059F0C7E74FF0FF35B0E7DDF80090B14504D07B
S214405A00484603F02DF9074620B9B4F90C304FF05C
S214405A10FF3592E74E4683E728000020000000004E
S214405A200000000000000000000000000000000031
S214405A300000000000000000000000000000000021
S214405A4090F800F06DE9024520F007016FF0000C79
S214405A5010F0070491F820F040F049804FF0000421
S214405A606FF00700D1E9002391F840F000F10800FC
S214405A7082FA4CF2A4FA8CF283FA4CF3A2FA8CF334
S214405A804BBBD1E9022382FA4CF200F10800A4FA9B
S214405A908CF283FA4CF3A2FA8CF3E3B9D1E90423EF
S214405AA082FA4CF200F10800A4FA8CF283FA4CF326
S214405AB0A2FA8CF37BB9D1E9062301F1200182FAE0
S214405AC04CF200F10800A4FA8CF283FA4CF3A2FAE6
S214405AD08CF3002BC6D0002A04BF04301A4612BAF4
S214405AE0B2FA82F2FDE8024500EBD2007047D1E9F7
S214405AF0002304F00305C4F100004FEAC50514F086
S214405B00040F91F840F00CFA05F562EA05021CBF56
S214405B1063EA050362464FF00004A9E72DE9F84F13
S214405B20DDF828900F46804616461D468A4600E019
S214405B30A2465446484614F801BB02F0FFFF5844BC
S214405B40427812F00802F3D1BBF12D0F4FD0BBF1D3
S214405B502B0F04BF94F800B00AF102041DB1102DBB
S214405B6056D0AC4604E0BBF1300F60D00A25AC46B8
S214405B70002A0CBF6FF000494FF000490021B9FBE6
S214405B80FCFE08460CFB1E9A05E029D00CFB0030B4
S214405B90012114F801BBABF13003092B05D9ABF159
S214405BA04103192B0BD8ABF137039D420FDDB1F102
S214405BB0FF3FEED08645E8D24FF0FF31E9E7ABF144
S214405BC06103192B03D8ABF157039D42EFDC4B1C06
S214405BD013D002B1404246B1C1B93760BDE8F88F34
S214405BE09A45D3DA4FF0FF31D3E7BDE8F88F94F803
S214405BF000B001220AF10204B0E72223C8F80030C0
S214405C00EEB1671E48463760BDE8F88F8146F8E734
S214405C10BBF1300FA5D1237803F0DF03582BA0D17A
S214405C204FF0100C94F801B065460234A0E7237894
S214405C3003F0DF03582BF3D00825AC4698E74846D8
S214405C40BDE8F88F30B5084C084B25686C6B83B0C0
S214405C50002C08BF1C46009413460A4601462846B8
S214405C60FFF75CFF03B030BD280000205C04002036
S214405C702DE9F04FBFB01D468A4691460446049033
S214405C8002F060FF036811931846FFF7D9FE0A95A5
S214405C9010901CB1A36B002B00F06282DAF86430DF
S214405CA0BAF90C2013F0010F93B202D1990540F1D6
S214405CB078829F040AD4DAF8641042F4005321F440
S214405CC00051AAF80C30CAF864109BB21E0740F187
S214405CD02682DAF81020002A00F0218203F01A0209
S214405CE00A2A00F041829FED8E7B00238DED0E7BCD
S214405CF00D93239322931293139307932EAB2193E2
S214405D009846CDF818A099F800304C46EBB1252BB4
S214405D1002D11AE0252B03D014F8013F002BF9D10D
S214405D20A4EB09058DB1229B239AC8F80090013355
S214405D302A44072BC8F804502392229300F3058286
S214405D4008F10808079B2B4407932378002B00F0A4
S214405D50FE8300231A468DF86730194608939B4603
S214405D6066784FF0FF3304F10109059309F1010904
S214405D70A6F12003582B00F2CD83DFE813F0E502AE
S214405D80CB03CB035403CB03CB03CB03CB03CB03D5
S214405D90CB0359030D03CB031E02ED02CB030803CE
S214405DA03F033F033F033F033F033F033F033F039E
S214405DB03F03CB03CB03CB03CB03CB03CB03CB03BA
S214405DC0CB03CB03CB034E036703CB036703CB0363
S214405DD0CB03CB03CB03B003CB03CB036F00CB0388
S214405DE0CB03CB03CB03CB035900CB03CB0323031B
S214405DF0CB03CB03CB03CB03CB03CB03CB03CB03EE
S214405E00CB03CB0329037802670367036703BC020F
S214405E107802CB03CB03C102CB03CE027100120340
S214405E204B02CB035702CB035B00CB03CB032302CF
S214405E304BF0100B1BF0200F40F061830A9A1BF0CA
S214405E40100F134640F0CA851BF0400F00F0C68581
S214405E5014880432002501230A9214E04BF0100BFC
S214405E601BF0200340F040831BF0100240F0A58555
S214405E701BF0400300F0A1850A9913460A460432F7
S214405E800C880A9200254FF0000A8DF867A0059905
S214405E904A1C00F010822BF08002029254EA05025F
S214405EA040F00F82002940F07C84002B40F03A8579
S214405EB01BF00103099300F076863EAF302307F8C7
S214405EC0413D059B099A9342B8BF1346039300236E
S214405ED00C93BAF1000F02D0039B01330393029B4D
S214405EE013F002030B9302D0039B02330393029BEF
S214405EF013F0840540F02983089B039AA3EB020B1A
S214405F00BBF1000F40F32183BBF1100F2399229A77
S214405F102CDD43461024A846DDF810A0069D0AE076
S214405F200000000000000000ABF1100BBBF1100FAA
S214405F3003F1080318DD0132B94822921031072ACE
S214405F40239183E81100EFDD21AA2946504603F04D
S214405F50E9FF002840F07483ABF1100BBBF1100F43
S214405F602399229A2EABE6DC454698460132AC4B46
S214405F7022920BEB0104072A239488E8080800F3D2
S214405F80D6849DF867A008F10808BAF1000F0ED035
S214405F90229B013301340DF167010122072B239424
S214405FA0229388E8060000F3138408F108080B9B48
S214405FB06BB1229B013302341AA90222072B239489
S214405FC0229388E8060000F30F8408F10808802D25
S214405FD000F03883059B099AA3EB020ABAF1000F3A
S214405FE03BDDBAF1100F229B8E4D2BDD42462146FB
S214405FF0B0464FF0100B2E46049C069D06E0AAF1D4
S214406000100ABAF1100F02F1080217DD0133103101
S214406010072B2391229382E84008F0DD21AA2946E7
S214406020204603F07FFF002840F00A83AAF1100ABA
S214406030BAF1100F2399229B2EAAE7DC35460C4670
S2144060404646904601335444072B2394229388E8CF
S214406050200400F3B28308F10808029BDB0500F138
S2144060608F82229B0999C8F8007001330C44072B95
S2144060702394C8F80410229300F37E8308F108089E
S214406080029B59073BD5089B039A9D1A002D36DD87
S214406090102D229B21DD1026049FDDF818A004E079
S2144060A0103D102D08F1080817DD01335C4A229395
S2144060B01034072B239488E84400F1DD21AA51468A
S2144060C0384603F02FFF002840F04982103D102D3F
S2144060D0239C229B0DF1B808E7DC0133504A2293FB
S2144060E02C44072B239488E8240008DD21AA06992F
S2144060F0049803F017FF002840F05083239C079B2A
S214406100089A03998A42ACBF9B185B180793002CE9
S21440611040F03C83002322930DF1B808F3E5514646
S214406120049801F0ADF8002838D0DAF86430DD077E
S21440613004D4BAF80C309C0540F1D9854FF0FF33B3
S214406140079307983FB0BDE8F08F21AA06990498B8
S21440615003F0E8FE002840F021830DF1B808F1E591
S214406160049802F0B3F999E5BAF90E20002AFFF632
S214406170BAADDAF86420D00705D4990503D4DAF826
S214406180580002F0F3FC2B464A465146049801F06C
S21440619035F8079007983FB0BDE8F08FBAF80C3056
S2144061A09CE5DAF8580002F0DFFCBAF90C2093B20E
S2144061B07FE508980A93404208904BF0040B99F804
S2144061C00060D3E5002A40F0F387174B12931BF08C
S2144061D0200F40F0CD840A9A1BF0100F134640F073
S2144061E0E7831BF0400F00F0E383043314880A93E0
S2144061F000251BF0010F00F02B8354EA050300F046
S214406200278330238DF868308DF869604BF0020B99
S214406210022338E64BF0200B99F80060A6E500BF55
S2144062204CAA40005CAA40002CAA40000A9A176874
S21440623000248DF86740151D002F00F05C86059AF7
S214406240531C00F0DA852146384602F0D9FF002874
S21440625000F0D686C31B099305940A95CDF808B07E
S21440626023EAE37303930C949DF867A031E6002A73
S21440627040F0A9871BF0200F40F088841BF0100FD9
S21440628040F0A3831BF0400F00F09F830A99B1F9BA
S21440629000400431E51722462B460A91002A73F146
S2144062A00003C0F2908405999DF867A04A1C4FF001
S2144062B001037FF4F0AD54EA050200F07482CDF895
S2144062C008B0012B00F01083022B40F09D821298FC
S2144062D02EAF230904F00F0143EA05732A091C4632
S2144062E01546435C07F8013D54EA0503F1D12EAB51
S2144062F0DB1B0993E5E54BF0400B99F8006035E56C
S21440630099F800606C2E03BF99F801604BF0200BA3
S21440631009F101094BF0100B28E5002A40F063878D
S2144063201BF0200F40F04D851BF0100F40F005810C
S2144063301BF0400F00F001810A9A136804320A925B
S214406340BDF81C201A80DEE499F8006000297FF42E
S2144063500DAD0122202109E599F800602A2E09F1A9
S214406360010000F00387A6F13003092B814698BF51
S214406370002000F2518619F8016B00EB800003EB19
S2144063804000A6F13003092BF5D90590F0E44BF018
S214406390800B99F80060E9E499F8006001222B210F
S2144063A0E4E40A9AB24B14681293782630230432F7
S2144063B08DF868304BF0020B0A9200258DF8696024
S2144063C0022360E5002A40F00A87AA4B1293FEE6B5
S2144063D00A99CDF808B00A688DF8902000230A463E
S2144063E09A468DF86730043201230393CDF814A003
S2144063F0CDF830A00A92099324AF70E5A6F1300399
S214406400002019F8016B00EB800003EB4000A6F17A
S2144064103003092BF5D90890AAE4002A40F0DB8621
S2144064204BF0100B26E74BF0010B99F800609DE40B
S2144064300A9C2368089318460028234603F1040361
S214406440FFF6B7AE0A9399F800608FE4002A40F052
S214406450B3860A9D1BF0080F05F1070500F03C8443
S21440646025F0070393ED007B8DED0E7B03F10802CC
S2144064700A92DDE90E1222F0004314911593DDE9ED
S21440648014454FF0FF32204629467B4BFFF726F84F
S214406490002840F0A2834FF0FF32774B2046294633
S2144064A0FEF7FEFF002840F0988300220023DDE937
S2144064B00E01FEF7EBFF002840F037849DF867A0FA
S2144064C06E4F6F4B032200212BF080000392059104
S2144064D00290472ED8BF1F4609920C91F9E44BF024
S2144064E0080B99F8006041E40A9D073525F007033C
S2144064F003F10802D3E900450A920023C3E40A9D4B
S214406500073525F0070303F10802D3E900450A9250
S2144065100123B8E4002A40F05A86C6B1002301227F
S2144065209A4603928DF89060CDF808B08DF86730A3
S21440653005930C93099224AFD1E40A9A1368043267
S2144065400A92079A1A60FFF7DEBB239C1DE5239B41
S214406550DDF818A0002B40F0698500232293DAF876
S214406560643013F0010FBAF80C3002D19A0540F1AE
S21440657048825B063FF5E2AD07983FB0BDE8F08F36
S214406580652E40F3B18000220023DDE90E01FEF7C0
S21440659073FF002800F05F81229B3A4AC8F800202B
S2144065A0013301340122072B23942293C8F8042098
S2144065B000F3C48308F108081B9B0D9A239C934262
S2144065C003DB029BDF077FF55BAD229B1099119A98
S2144065D0C8F8002001330C44072BC8F80410239455
S2144065E0229300F3FD8308F108080D9B5E1E002EE3
S2144065F07FF746AD102E229B234D40F3CF811027C8
S214406600DDF810A0DDF818B005E008F10808103EE7
S214406610102E40F3C38101331034072B239422936A
S21440662088E8A000F1DD21AA5946504603F07AFCDE
S214406630002840F0D283239C229B0DF1B808E6E761
S214406640AA468CE7089B039AA3EB020ABAF1000F0E
S2144066507FF7C0ACBAF1100F229B0B4D38DD424697
S2144066602146B0464FF0100B2E46049C069D14E083
S2144066702CAA400018AA4000FFFFEF7F0CAA40005B
S21440668008AA400048AA40005CAA4000AAF1100AA6
S214406690BAF1100F02F1080216DD01331031072B54
S2144066A02391229382E84008F0DD21AA294620461D
S2144066B003F038FC0028C3D1AAF1100ABAF1100F33
S2144066C02399229B2EAAE8DC35460C464646904641
S2144066D001335444072B2394229388E8200400F384
S2144066E0658208F1080875E40D9B229E012B40F355
S2144066F0FE81013601340123072E23942296C8F8E2
S2144067000070C8F8043000F30F8208F10808109AA9
S214406710119BC8F8003001361444072E2394229665
S214406720C8F8042000F30D8208F108080023002270
S214406730DDE90E01FEF7A0FE0D9B002840F0068125
S214406740013B013601371C44072E22962394C8F895
S2144067500070C8F8043000F3DA8108F10808139A8C
S214406760C8F80420013614441DAB072E2394229605
S214406770C8F800307FF782AC21AA0699049803F047
S214406780D1FB58B9239C0DF1B80879E421AA0699A3
S214406790049803F0C7FB00283FF4BCACDDF818A013
S2144067A0DDE6DDF808B0012B00F02181022B27D171
S2144067B0CDF808B00024002589E521AA069904985A
S2144067C003F0B0FB0028E9D1239C0DF1B80844E45F
S2144067D021AA0699049803F0A5FB0028DED1239C45
S2144067E00DF1B808FFF7E3BB21AA0699049803F019
S2144067F099FB0028D2D1239C0DF1B808FFF7E7BBE0
S214406800CDF808B0002400252EA900E03946E2085D
S21440681042EA4572E80804F007030546144630335A
S21440682054EA050201F8013C01F1FF37EED1029A25
S214406830D2077FF55CAD302B3FF459AD302302399B
S21440684007F8013C2EAB5B1A09930F46FFF739BB9E
S2144068500223FFF718BB1B99002940F37A820C9B52
S2144068600D9A9342A8BF1346002B1E460DDD229B71
S214406870C8F8007001333444072B2394C8F80460EA
S214406880229300F32C8308F108080C9B002EA8BF27
S2144068909B1B002B1E4640F3D080102E229BBA4DE9
S2144068A040F3B78022464FF0100ADDF810B0069C41
S2144068B005E008F10808103E102E40F3A980013389
S2144068C01032072B2392229388E82004F1DD21AA78
S2144068D02146584603F026FB002840F02A83239A98
S2144068E0229B0DF1B808E6E7002D08BF0A2C7CD3A2
S2144068F02EAF204629460A22002303F09FFD303261
S21440690007F8012D2046294600230A2203F096FD6B
S21440691004460D4654EA0503EBD12EABDB1B099328
S214406920FFF7CFBA059B09932EAFFFF7CABA21AA45
S2144069300699049803F0F6FA00287FF42FAF9DF8E6
S21440694067A0239C0DF1B808FFF71FBB5F1E002F02
S2144069507FF705AF102F8C4D40F300814FF0100AA3
S214406960DDF810B005E008F10808103F102F40F39E
S214406970F58001361034072E2394229688E82004AA
S214406980F1DD21AA0699584603F0CCFA00287FF498
S21440699005AF239C229E0DF1B808E6E70133344448
S2144069A0072B2394229388E860007FF767ABE3E6E3
S2144069B01C6804330A9300251BE40A990A460432ED
S2144069C00C680A920025FFF75EBA0A9A14681346C6
S2144069D00433E5170A9322462B465FE404321C68CC
S2144069E00A9201230025FFF74EBADDF808B0CDF82D
S2144069F008B03EAF3034012307F8414D0993FFF706
S214406A0060BADAF8580002F0B1F8BAF80C30B0E5DF
S214406A10144601333444072B2394229388E86000BD
S214406A2040F3738121AA0699049803F07BFA002864
S214406A307FF4B4AE239C0DF1B8081B9B0D9A93428D
S214406A4080F25E81229A10981199C8F8001001329F
S214406A500444072A2394C8F80400229200F358817D
S214406A6008F108080D9A0C99D31A561A9E42A8BFE8
S214406A701E46002E0EDD229AC8F8046001320F44EE
S214406A803444072AC8F800702394229200F34282C6
S214406A9008F10808002EACBF9E1B1E46002E7FF74E
S214406AA0EFAA102E229B384D7FF778AF1027DDF8DF
S214406AB010A0DDF818B005E008F10808103E102ECA
S214406AC07FF76CAF01331034072B2394229388E86A
S214406AD0A000F1DD21AA5946504603F023FA0028CB
S214406AE040F07B81239C229B0DF1B808E6E7029B91
S214406AF0D8073FF5FEAD013601340123072E239417
S214406B002296C8F80070C8F804307FF726AE21AA4F
S214406B100699049803F006FA00287FF43FAE239CBB
S214406B20229E0DF1B8081AE621AA0699049803F0A9
S214406B30F9F900287FF432AE239C229E0DF1B80866
S214406B40E5E521AA0699049803F0ECF900287FF4BD
S214406B5025AE239C229E0DF1B808E7E501363C445D
S214406B60072E2394229688E8A0007FF7F6ADCEE75E
S214406B700A9D073525F0070303F108020A92D3E978
S214406B800045FFF736BB00BF5CAA40000A9D0735AC
S214406B9025F00705D5E9002305F108010A911446BA
S214406BA01D46FFF77BBB2EAFFFF78BB921AA069990
S214406BB0049803F0B7F900287FF4F0AD239C0DF15C
S214406BC0B808FFF707BA4FF02D0A644265EB450553
S214406BD08DF867A00123FFF75AB9DDE90E0102469A
S214406BE00B46FEF77BFC002840F08982059B01336C
S214406BF026F0200A00F09F80BAF1470F04D1059B8B
S214406C00002B08BF012305930F9B4BF48072002B8B
S214406C100292C0F2A9819DED0E7B8DED167B00237E
S214406C200B93662E00F08881462E00F0DA81BAF18A
S214406C30450F0CBF059B059D049808BF5D1C1FAA09
S214406C401CAB019200932A461BAB02219DED160B0E
S214406C5000F01EFC672E074640F0AA811BF0010F8D
S214406C6000F043827C1900220023DDE91601FEF77E
S214406C7003FC002840F031811F9BA34206D23021FE
S214406C805A1C1F9219701F9B9C42F9D8DB1BBAF105
S214406C90470F0D9300F0C480652E40F386821B9B01
S214406CA00C93662E00F076810D9B0C9A1946914205
S214406CB000F363811BF0010F40F00E8222EAE2737C
S214406CC00393099267260B9B002B40F0A180059307
S214406CD09DF867A0FFF7FDB825F0070595ED007B0A
S214406CE005F108038DED0E7B0A93FFF7C2BBDAF879
S214406CF0580001F03BFF4FF0FF330793FFF721BAF0
S214406D00029AD5077FF5AEAE9CE608F1080894E6F1
S214406D1021AA0699049803F005F900287FF43EADB1
S214406D201B9B239C0DF1B8089CE64FF02D0A8DF86E
S214406D3067A0FFF7C5BB0623059365E721AA06991A
S214406D40049803F0EFF800287FF428AD0DF1B8085A
S214406D5032E4229BB24AC8F80020013301340122B3
S214406D60072B23942293C8F8042000F32D8108F1C2
S214406D70080829B90D9B1BB9029BDE077FF580A941
S214406D80229B1098119AC8F80020013302462244EC
S214406D90072B2392C8F80400229300F3778108F16A
S214406DA008080029C0F24C810D99C8F800700133DC
S214406DB08C18072B23942293C8F804107FF75EA9FB
S214406DC0DAE40A9A07991368CD170846043229462A
S214406DD00A92C3E90001FEF796BFDA46FFF7BFBB4B
S214406DE021AA0699049803F09DF800287FF4D6ACB3
S214406DF0239C0DF1B808FFF7F8BB38460594FEF71C
S214406E001FFE0A950990CDF808B00346FFF728BA4A
S214406E104FF02D0A00238DF867A00593FFF75CB866
S214406E201B9B0C931A46033304DB059B1946914281
S214406E30BFF63AAF023E0C9B8DF87460013B002BC8
S214406E401B93BDBF0C9BC3F101032D222B22092BA4
S214406E508DF8752040F34B810DF183042046714D2B
S214406E6000E0104685FB0312D917C1EBA20101EBE7
S214406E708102A3EB42023032092900F8012C0B466E
S214406E8000F1FF32EDDC30330238D9B2844202F8EA
S214406E90011C40F295810DF17600134601E013F88F
S214406EA0011B00F8011BA342F9D101339B1A0DF1D7
S214406EB0760213441DAA9B1A0D9A1393012A134473
S214406EC0099340F34981099B109A1344099323EA96
S214406ED0E373039300230C93F5E62346D6E621AAF4
S214406EE00699049803F01EF800287FF457AC239CBC
S214406EF00DF1B808C9E4059B0C97062B28BF06235E
S214406F000597BA4603930A95CDF808B00993464FBD
S214406F10FEF7DFBF21AA0699049803F003F800287D
S214406F207FF43CAC1B9B0D9A239CD31A0DF1B808FA
S214406F30B0E5A246FFF713BB059C04981FAA1CABFE
S214406F400192009322461BAB03219DED160B00F0E9
S214406F509FFA2346074604191D463B78302B00F01F
S214406F60DB801B9D2C447EE6DDE90E1202F10043D9
S214406F7017932D2316910B9353E6109A0D9B1344AB
S214406F800C9A0993002A40F3DF8023EAE3730393C5
S214406F90672698E6002B40F3F680059A002A40F0D4
S214406FA0C9801BF0010F40F0C580039309938AE621
S214406FB0472E7FF457AE1BF0010F00F0EE80462EB2
S214406FC007EB0504C9D04EE621AA0699049802F0BC
S214406FD0A9FF00287FF4E2AB1B99239C0DF1B8086B
S214406FE0C7E6059D04981FAA1CAB019200932A464B
S214406FF01BAB03219DED160B00F04AFA0746DEE771
S214407000059B0393099305900A95CDF808B00C901C
S2144070109DF867A0FEF75DBF00230593FEF7A8BE68
S21440702048AA40006766666640AA4000049821AABF
S214407030514602F077FF00283FF48FAAFFF78FBA39
S2144070404E4210316A4D2FDA1024DDF810A0DDF8DC
S21440705018B004E008F10808103E102E24DD013375
S2144070601032072B23922293C8F80050C8F80440E9
S214407070F0DD21AA5946504602F054FF00287FF41E
S214407080ACAE239A229B0DF1B808E5E721AA0699F3
S214407090049802F047FF00287FF480AB1B99239AA0
S2144070A0229B0DF1B8087CE601333244072B88E872
S2144070B060002392229308F108087FF775AE21AA54
S2144070C00699049802F02EFF00287FF467AB239AB7
S2144070D0229B0DF1B80867E60C9B109A134409935F
S2144070E023EAE37303936726EDE51F9BCEE5303333
S2144070F030228DF877308DF876201EABDAE60F9B7F
S2144071003C4F002BB6BF4FF02D0A9DF867A08DF878
S21440711067A0394BFFF7D6B900220023DDE91601F8
S214407120FEF7AAF900287FF41CAFC5F101051B95B0
S2144071302C4498E50C9B109A1344059A1A4422EA6C
S214407140E27309920393BEE50C9B099AC3F10103CF
S2144071501A441346099218E71BF001030C937FF478
S214407160B2AE099B23EAE3730393ACE50A9C99F815
S2144071700160236843EAE37305932346043381465C
S2144071800A93FEF7F3BD059B13B91BF0010F02D01F
S214407190109B0133D1E7012307E71F9BBAF1470F46
S2144071A0A3EB07030D933FF43BAE1B9B0C9342E6C9
S2144071B08DF86710FFF709B88DF86710FFF749B9E3
S2144071C00DF1760376E68DF86710FFF753B88DF825
S2144071D06710FFF7A2B98DF86710FFF721B98DF851
S2144071E06710FFF7F2B88DF86710FFF799B800BF41
S2144071F05CAA400014AA400010AA40002DE9F041C5
S2144072000C46ADF58D6D8989666EE589199621F037
S21440721002010646E069ADF80C1017464FF480614F
S214407220626AADF80E5098461AAD0023079016A82D
S21440723009920693009504950291059101F090FC01
S21440724043463A4669463046FEF712FD051E07DBC2
S2144072503046694601F0E2F8002818BF4FF0FF3587
S214407260BDF80C305B0603D5A38943F04003A381E9
S214407270169801F077FC28460DF58D6DBDE8F08137
S21440728038B5304B1B6805460C4613B19A6B002A3E
S21440729038D0B4F90C2093B218070CD52069A8B1A1
S2144072A013F001021ED0636900225B42A361A26014
S2144072B0F0B1002038BDD9063CD5580726D4206901
S2144072C042F00803A3819BB20028E9D103F4207260
S2144072D0B2F5007FE4D02846214601F077FCA3892A
S2144072E02069DDE7990758BF6269A2600028E0D1AF
S2144072F0B4F90C301A06DDD543F04003A3814FF0B5
S214407300FF3038BD184601F0E1F8C2E7216B51B1B5
S21440731004F14003994204D0284601F079F9B4F9C3
S2144073200C200023236300232069636022F024029C
S2144073302060C5E742F0400209232B604FF0FF3043
S214407340A28138BD28000020024B13B1024800F04D
S21440735005B87047000000003D8540000023014608
S2144073601A46184602F00CBE02690B69934200F3B7
S2144073708D802DE9F04F03F1FF3801F1140700F13D
S214407380140B57F828205BF828304FEA880483B05F
S2144073900132B3FBF2F90BEB0403009407EB040A4B
S2144073A00193B9F1000F39D000252E46BC46DE4683
S2144073B05CF8044BDEF80030A2B209FB0255220C02
S2144073C02C0C09FB0242ADB2751B96B2C6EB1346B7
S2144073D015FA83F306EB23469BB243EA0643E2459F
S2144073E04FEA12454EF8043B4FEA2646E0D2009B51
S2144073F05BF8033093B9019C231F9B450CD254F88D
S214407400043C4BB9A4F1080302E01A68043B1AB9DD
S2144074109B4508F1FF38F8D3C0F81080044602F0C8
S21440742047FA00282EDB09F101095D46002357F88C
S214407430041B28688AB29A1A0B0C12FA80F2C3EB25
S214407440104303EB224392B242EA0342BA4545F860
S214407450042B4FEA2343EAD25BF828200BEB880341
S21440746082B91A1F93450BD253F8042C42B9083BF5
S21440747002E01A68043B1AB99B4508F1FF38F8D376
S214407480C4F81080484603B0BDE8F08F002070472F
S2144074902DE9F04F57EC106B97B0056C02910446FF
S2144074A093460393CDE900674DB1426C6A60012371
S2144074B09340AB60294602F023F800232364DDE9BD
S2144074C00023002B994638DB209A00231360A04BFC
S2144074D033EA090317D0DDE900670022002330466F
S2144074E03946FDF7C9FF804600282FD0039A01236E
S2144074F01360219B002B00F0C4809648186001382A
S21440750017B0BDE8F08F039A42F20F731360009BEA
S2144075106BB9C9F3130353B9219B8F48002BEFD0A7
S21440752000F10803219A136017B0BDE8F08F219B45
S2144075308A48002BE4D0C31CF4E7019A22F00049A5
S214407540209ACDF8049001231360C0E714AA15A929
S21440755047EC106B204602F04BFA5FEA195582461C
S21440756073D0C7F3130343F07F51CDF84080DDF866
S21440757050803046A5F2FF3541F440110022784B4A
S214407580FDF75EFB6CA3D3E90023FDF70DFD6CA36E
S214407590D3E90023FDF756FB064628460F46FDF77F
S2144075A09DFC69A3D3E90023FDF7FEFC02460B468B
S2144075B030463946FDF746FB06460F46FDF7A4FF24
S2144075C000220490002330463946FDF75FFF00282E
S2144075D040F06F81049E162E00F25981614B03EBFA
S2144075E0C603D3E90001DDE90023FDF76DFF00285F
S2144075F000F0C481731E049300230C93A8EB05058A
S2144076006B1E059300F14F8100230693049B002BCD
S214407610C0F24081059A0B93114619440023059108
S2144076200A93029B092B2ED8052B40F35186043B28
S21440763002930027029B023B032B00F23386DFE8CF
S21440764013F0D603CB02E3036404DDF85080159DA7
S214407650454405F23243202B40F38A81C3F1400370
S21440766009FA03F9009B05F2124023FA00F040EABB
S2144076700900FDF723FC0123013DA1F1F8711093A9
S2144076807CE739483CE70021616420468B4601F0A0
S21440769011FF4FF0FF3308930D93012307902064AA
S2144076A0CDF808B00993159B002BC0F2D080049A01
S2144076B00E2A00F3CC802B4BBBF1000F03EBC2032A
S2144076C0D3E90089C0F2BE83DDE9006742464B46F7
S2144076D030463946FDF792FDFDF716FF8346FDF727
S2144076E0FDFB42464B46FDF75FFC0B4602463946DD
S2144076F03046FDF7A5FA079D0BF130032B70089B2B
S214407700012B06460F4605F1010561D00022174BB6
S214407710FDF74AFC0022002306460F46FDF7ACFE66
S214407720002840F08180CDF800A00294DDF81CA02F
S214407730089C28E0AFF3008061436F63A787D23F81
S214407740B3C8608B288AC63FFB799F501344D33F0B
S2144077500000F07F49AA40006CAA400078AA40008A
S2144077600000F83FB8AA400048AA40000000244065
S214407770FDF71AFC0022002306460F46FDF77CFE66
S214407780002840F0C58342464B4630463946FDF712
S21440779035FDFDF7B9FE8346FDF7A0FB42464B4656
S2144077A0FDF702FC02460B4630463946FDF748FADE
S2144077B00BF1300E05F801EBA5EB0A0EA645064682
S2144077C00F464FF000026E4BD2D1DDF800A0029C6F
S2144077D032463B4630463946FDF734FA06460F46B3
S2144077E002460B4640464946FDF750FE48B93246EB
S2144077F03B4640464946FDF73FFEA8B11BF0010F09
S21440780012D015F8018C079A6B1E04E09A4200F0DD
S2144078102D8413F8018DB8F1390F03F10105F5D029
S21440782008F1010883F800805146204601F068FEC2
S2144078300022049B2A70039A01331360219B002B7D
S21440784000F0A38307981D6017B0BDE8F08F099A33
S214407850002A40D0029A012A40F31C83089B0A9AC9
S2144078605F1EBA42C0F29483D71B089B002BC0F21F
S2144078707E84069D089B069A1A440692059A012124
S2144078801A442046059201F0D5FE064626E001231E
S2144078900C93B3E6069A049BD21A5B420A930023E3
S2144078A006920B93BDE6C5F10103069300230593AC
S2144078B0ACE6DDF810904846FDF710FB02460B4656
S2144078C030463946FDF7D8FD00287FF483AE09F1EF
S2144078D0FF3304937EE60A9F069D099E002D0CDD2D
S2144078E0059900290B4608DDA942069AA8BF2B46F3
S2144078F0D21AED1ACB1A069205930A9BD3B1099B6E
S214407900002B00F0C082002F10DD31463A4620465C
S21440791001F02CFF524601460646204601F094FEF2
S21440792051468046204601F0EBFDC2460A9BDA1BD4
S21440793040F0AA820121204601F07CFE0B9B002BE2
S21440794081461FDD01461A46204601F00FFF029B86
S214407950012B814640F35B824FF00008D9F8103087
S21440796009EB8303186901F015FEC0F1200013E00F
S214407970C3F12009009B03FA09F07AE60C903DE635
S21440798000002440029B012B40F38D824FF00008FC
S2144079900B9B0120002BE1D1059A104410F01F00EC
S2144079A000F0A180C0F12003042B40F38C84069B9A
S2144079B0C0F11C0003440693134603440544059354
S2144079C0069B002B05DD51461A46204601F01EFF59
S2144079D08246059B002B05DD49461A46204601F0A7
S2144079E015FF81460C9B002B40F08680089B002BA1
S2144079F040F36982099B002B00F09880002D05DD3E
S214407A0031462A46204601F001FF0646B8F1000FEF
S214407A1040F03683B046089B079A013BD31808933C
S214407A20009B03F001030993174649465046FFF76B
S214407A309BFC31460546504601F03AFF42464946D1
S214407A408346204601F050FF05F130020092C2689E
S214407A500146002A40F032820690504601F028FF48
S214407A60069B05901946204601F04AFD059A32B914
S214407A70029B23B9099B002B00F0DE83029ABBF1E0
S214407A80000FC0F2A28205D1029B1BB9099B002BB6
S214407A9000F09B82002A00F307839DF800303B707D
S214407AA0089B07F1010B9F425D4600F00883514654
S214407AB000230A22204601F02DFD464582463146E7
S214407AC04FF000034FF00A02204600F0F18101F02B
S214407AD021FD4146064600230A22204601F01AFDB3
S214407AE05F468046A1E71C20069B03440693059B01
S214407AF003440544059363E74946504601F0D8FEE3
S214407B000028BFF673AF049F514600230A22204642
S214407B10013F049701F0FEFC099B8246002B40F093
S214407B20A7830D9B002B40F3B0830893DDF81CB071
S214407B30DDF820805D4602E001F0ECFC82464946D6
S214407B405046FFF711FC00F1300705F8017BA5EB26
S214407B500B0343454FF00A024FF0000351462046C0
S214407B60EADB079B089A0097012AACBF9B180133B3
S214407B701D464FF0000B51460122204601F046FEBE
S214407B804946824601F094FE002840F33A8215F8B2
S214407B90012C07996B1E04E08B4200F0AF8113F86E
S214407BA0012D392A03F10105F6D001321A704946F3
S214407BB0204601F0A5FC002E3FF436AEBBF1000F88
S214407BC005D0B34503D05946204601F099FC3146CE
S214407BD0204601F095FC27E600230993049B5B446E
S214407BE00D930133012B1E461D460893B8BF012650
S214407BF00021172E61640AD9012204235B0003F199
S214407C0014008642114602F10102F7D26164204612
S214407C1001F050FC0E2D079020643FF644AD002F37
S214407C203FF441AD049900299DED007B40F3F68179
S214407C30B94B01F00F0203EBC2030D11D3E9006705
S214407C40EB0640F1AD81B54B51EC170BD3E9082359
S214407C50FDF7D4FACDE90E0105F00F054FF0030904
S214407C608DB1DFF8B882E80709D530463946D8E9FD
S214407C700023FDF799F909F1010906460F466D10F4
S214407C8008F10808EFD13B463246DDE90E01FDF724
S214407C90B5FA074688460C9B43B10022A04B3846AF
S214407CA04146FDF7F3FB002840F073824846FDF757
S214407CB015F93A464346FDF777F99A4B0022FCF70A
S214407CC0C1FF089B0546A1F15076002B00F040818D
S214407CD0049BDDF820901193099B002B00F0F68161
S214407CE08D4B914903EBC90353E902230020FDF76E
S214407CF085FA2A463346FCF7A3FFCDE90E014146F6
S214407D003846FDF701FC0546FDF7E8F802460B4607
S214407D1038464146FCF794FF30355FFA85F8079DB4
S214407D2006460F4685F8008002460B46DDE90E0102
S214407D300135FDF7C9FB002856D132463B460020A8
S214407D407749FCF77DFF02460B46DDE90E01FDF75D
S214407D50BBFB002840F06282B9F1010F3FF4A3ACB0
S214407D60079BCDF848A0CDF84CB09944A046DDE935
S214407D700EAB0DE000206A49FCF762FF52465B46B8
S214407D80FDF784FB002840F044824D4500F04A82CF
S214407D90504659460022654BFDF706F90022634BD4
S214407DA082468B4630463946FDF7FEF80F46064675
S214407DB0FDF7AAFB0446FDF791F802460B4630460F
S214407DC03946FCF73DFF3034E4B252465B4605F890
S214407DD0014B06460F46FDF759FB32463B46002808
S214407DE0C8D0DDF848A04446119B04931CE5002308
S214407DF00993BBF1000F40F3DA805E465D46CDF84E
S214407E0034B0CDF820B0F3E601230993F1E7009BA8
S214407E10002B7FF4A1ADDDE90012C2F31303002B63
S214407E207FF4B4AD22F000473F0D3F05002F00F031
S214407E300082069B01330693059B013305934FF062
S214407E400108A5E5089B002B3FF73EAC40F0998023
S214407E5049460022364B4046FDF7A6F8DDE90023AA
S214407E60FDF728FBDDF820904E4600283ED06FEA0E
S214407E700B03079D04934946204601F041FB002E24
S214407E803FF4D2ACA3E60A9A5146204601F06EFC77
S214407E9082464FE5109A002A00F06F8103F2334382
S214407EA00A9F069DE7E4009B002B7FF46FADB2E788
S214407EB001F030FB5F4606468046B6E5204601F0B8
S214407EC01FFB0122DBE5029B022B7FF793AD089B4D
S214407ED0002BCCD149460522204601F01BFB01462B
S214407EE08146504601F0E4FC0028C0DD049A07991C
S214407EF03123013204920B704D1CBCE7049A0132C8
S214407F000492079A3123137051E60123099365E6DC
S214407F10DDF800A0029C87E4B8AA400090AA400082
S214407F200000F03F00001C400000E03F00002440FE
S214407F30000014404846FCF7D1FF3A464346FDF75A
S214407F4033F80022C44BFCF77DFE0546A1F150767F
S214407F5041460022C14B3846FCF772FE2A4633465D
S214407F6080468946FDF7B0FA002840F0AB802A46A6
S214407F7006F1004340464946FDF788FA00283FF49C
S214407F8092AB4FF000094E4671E70798FFF7B8BA34
S214407F900A9B0B9A0A97FB1A1A440B92002764E432
S214407FA09DED007B4FF002098DED0E7B58E60021DB
S214407FB06164204601F07EFA4FF0010B0790206482
S214407FC0CDF820B0CDF834B029E6002A12DD51466F
S214407FD00122204601F01AFC4946824601F068FC20
S214407FE0002840F33181009B392B00F0F78005F1E3
S214407FF0310300939DF800303B70B3467D1C4646E7
S214408000D5E504D1009BDB0701D5C0E5154615F83C
S214408010013C302B05F1FF32F8D0C8E500F0B480C3
S214408020049B5D428E4B05F00F0203EBC203D3E97F
S2144080300023DDE90001FCF7B7FF2D11074688460F
S21440804000F02881874E4FF00209E90709D53846E7
S2144080504146D6E90023FCF7A7FF09F10109074688
S21440806088466D1006F10806EFD114E607993022CF
S2144080700A70049A15F8018C01320492FFF7D0BBBF
S2144080807168204601F016FA336902339A000546B5
S21440809006F10C010C3001F003F929460122204676
S2144080A001F0B4FB8046B6E4009B392B00F0968086
S2144080B0009B0133B3463B707D1C464677E5B3468E
S2144080C0464658E54FF000094E460FE7644901EB37
S2144080D0C9012A46334651E90201FCF765FFCDE95E
S2144080E00E0138464146FDF70FFA0546FCF7F6FE08
S2144080F002460B4638464146FCF7A2FD079A303505
S214408100B9F1010F157006460F4602F101051CD065
S214408110079B99440022544B30463946FCF744FFAF
S2144081200F460646FDF7F0F98046FCF7D7FE08F105
S214408130300802460B4630463946FCF781FD05F8C6
S214408140018B4D4506460F46E4D10022474BDDE9FC
S2144081500E01FCF777FD32463B46FDF797F90028BF
S21440816042D0119B049315F8018CFFF74CBB069B3D
S214408170089A9D1A0023FFF77EBB149B0A9F069D14
S214408180C3F13603FFF777BBDDE900784FF002090D
S21440819081E5089B002B3FF4CDAE0D9B002B7FF76F
S2144081A082AA0022304B38464146FCF7FDFE074681
S2144081B0884609F10100FCF791FE3A464346FCF733
S2144081C0F3FE0022244BFCF73DFD049ADDF8349084
S2144081D0013A0546A1F1507611927DE53922B34623
S2144081E03A7046467D1CD4E4DDE90E2300201F4944
S2144081F0FCF726FD32463B46FDF766F910B9FFF719
S21440820052BA154615F8013C302B05F1FF32F8D02E
S214408210EAE54346DDF848A0A0461C46119B049379
S214408220FFF7F1BADDF848A0DDF84CB04446FFF75A
S2144082303ABAB846FFF7ACBB009B392BCED0BBF161
S214408240000F3FF7D4AED5E67FF4D4AE009BDA07F6
S2144082507FF5D0AEC7E600BF00001C4000001440CB
S214408260B8AA400090AA4000000024400000E03F2A
S214408270314600230A22204601F04CF90D9B002B84
S21440828006460ADD0893FFF7B9BB029B022B22DCA9
S2144082900D9B4AE44FF00209FDE4029B022B1ADCD8
S2144082A00D9BEFE7002565642946204601F002F95C
S2144082B04FF0FF3308930D9301230790AB4620649D
S2144082C00993FFF7F0B93FF47BABC0F13C000BE4F9
S2144082D00127FFF7AFB90D9B0893F8E5B1F90C30CD
S2144082E09AB22DE9F0410D46110780463AD46A68A5
S2144082F043F40063002AAB816FDDAC6A002C49D0A2
S21440830000229BB2D8F80060C8F8002013F48052D0
S21440831067D02A6D5F0705D569682B6B521A0BB17B
S214408320EB6BD21A0023E9694046A047441C3CD078
S214408330B5F90C302A692A6023F400630022AB8129
S214408340DB046A6047D4296BC8F8006011B305F1B6
S2144083504003994202D0404600F05AF90020286374
S214408360BDE8F0812E69AEB12C682E6091070CBF37
S2144083706B690023A41BAB600AE0234632466F6A53
S214408380E9694046B8470028A4EB0004064404DDEB
S214408390002CF2DC0020BDE8F081AB8943F04003BE
S2144083A0AB814FF0FF30BDE8F081D8F800401D2C7F
S2144083B0F3D8194BE340DB4313F00103EDD1B5F995
S2144083C00C206B6022F400632969AB81DA042960D3
S2144083D0B9D5002CB7D12865B5E7EA6B002A8CDC06
S2144083E0D8E70123E9694046A047431C024602D02D
S2144083F0AB89AC6A8EE7D8F80030002BF8D01D2B3E
S21440840001D0162B02D1C8F80060C3E7AB8943F011
S2144084104003AB81BDE8F0810100402038B50D46F1
S214408420044608B1836BBBB1B5F90C0088B16B6EDE
S214408430DB0701D4810517D520462946FFF74EFFB6
S2144084406B6EDA07044602D4AB899B0507D52046F7
S21440845038BD0446204638BD00F038F8E4E7A86D3D
S21440846000F084FB204638BDA86D00F07DFBE3E7B6
S214408470014900F02BBB00BFC9A0400010B5002347
S21440848004468181C2810360436083604366036122
S21440849043618361194608225C30FDF737F9074887
S2144084A00749084A084B2062E4616162A262E362BF
S2144084B004F15800BDE8104000F052BB1D9E40003D
S2144084C0419E40007D9E40009D9E400010B5044663
S2144084D0124800F049FBA26BD2B904F53B73104832
S2144084E0C4F8E8320321C4F8E022E063C4F8E4129A
S2144084F060680421FFF7C2FF01220921A068FFF748
S214408500BDFF02221221E068FFF7B8FF0123A363F4
S2144085100248BDE8104000F029BB00BF882A002072
S21440852071844000014800F01FBB00BF9C2A002019
S214408530014800F01BBB00BF9C2A002038B50A4CFF
S2144085400A4D641BA4100AD004F18043013B05EB9E
S2144085508305013C55F804399847002CF9D1BDE80D
S214408560384002F09FBB00BFB4AC4000B0AC400007
S214408570F8B5244F0C46064600F090FFBB685D6891
S214408580C4F57E610F3125F00305294421F47F614F
S21440859021F00F01A1F58054B4F5805F07DB002180
S2144085A0304601F029FCBB682B44984204D0304644
S2144085B000F07AFF0020F8BD6142304601F01CFC16
S2144085C001300DD0104BBA6819682D1B45F00105D7
S2144085D03046091B5560196000F066FF0120F8BD63
S2144085E00021304601F008FCBA68831A0F2BDEDD06
S2144085F0064C0549246843F00103001B536008609D
S214408600D5E700BFC80500203C0A0020D00900205E
S214408610002944D02DE9F0410D46804600F03EFF4B
S21440862055F8047C694927F00103A5F10804E218CF
S2144086308E685068B24220F003005ED0FE0750605D
S2144086400BD455F8087CE41B01F1080EA568754567
S2144086503B446DD0E768EF60BD6015186D68ED0768
S2144086603ED543F001026260E350B3F5007F17D277
S214408670DB08581C9A104D6851F83070A7600123EB
S214408680934001EBC0022B43083AE2604B6041F84E
S2144086903040FC604046BDE8F04100F005BF704702
S2144086A05A0A042A52D89A0902F13907FF0002F101
S2144086B03805C819CA59083890424FD0516821F039
S2144086C003018B4232D292689042F7D1C368A060D1
S2144086D0E3609C60C4604046BDE8F04100F0E4BE04
S2144086E095683B4FBD42034440D0D068E86043F0B5
S2144086F0010285606260E350B7E7FF07034407D492
S21440870055F8082CA41A1344A068E268C26090602A
S214408710304A126843F00100934260608C60B9D3DF
S2144087202D4B40461968FFF723FFB3E71046CDE7C9
S21440873011184968C90744D49168D268CA6003448E
S21440874043F0010091606060E350A3E7142A16D816
S21440875002F15C07FF0002F15B05AAE7AA100123BD
S2144087604D6893402B434B600346B0E743F001020D
S2144087704C610C61E560A5606260E3508AE7542A6C
S21440878006D81A0B02F16F07FF0002F16E0590E75C
S214408790B2F5AA7F06D8DA0B02F17807FF0002F19D
S2144087A0770586E740F25450824206D89A0C02F18A
S2144087B07D07FF0002F17C057BE74FF47E777E2540
S2144087C077E743F001016160136063E7C805002066
S2144087D0D0050020D40900206C0A00209368002BA6
S2144087E073D02DE9F04F8B8983B00C461907009063
S2144087F0164626D5226922B313F0020035682CD0DF
S2144088004FF00009B04FC846B246B84543464A46C0
S21440881028BF3B460098B8F1000F50D0E169666A21
S214408820B047002858DDDAF808301B1A8144A8EB18
S2144088300008CAF80830002BE7D1002003B0BDE896
S214408840F08F21460098FEF71BFD002840F033814C
S214408850A389356813F00200D2D113F0010945D13F
S2144088604F46019637B39A05D4F8088040F1838086
S2144088704745C346C0F0AB8013F4906F40F0AC80E1
S2144088802068BA465A46494600F0A4FDA2682368C6
S214408890A2EB08025B44A2602360019A9368A3EBB4
S2144088A00A03D144A7EB0A079360002BC5D0A389DF
S2144088B0002FD8D1D5F800906F680835D2E7D5F8A4
S2144088C00090D5F8048008359FE700207047214681
S2144088D00098FFF7A3FD70B3B4F90C3043F04003A3
S2144088E04FF0FF30A38103B0BDE8F08F814633469A
S2144088F04E46A8469A464D464EB380B320682369F6
S2144089006269B145CB4628BFB34698425F4604D914
S214408910A36813449B4500F3A68093454BDB134660
S214408920676AE16900982A46B847071ED4DDB9EB66
S2144089300709CCD00120DAF80830DB1B3D44F61B93
S214408940CAF80830002B3FF478AF002ED5D108F196
S214408950080313E9600098460833002EF9D03246E3
S2144089600A21284600F04CFC002800F0A180013087
S214408970A0EB0509C2E720682369984202D86369DC
S2144089809F425DD2B84528BFB8464246494600F0A9
S21440899021FDA3682268A3EB08034244A36022603B
S2144089A00BB1C24679E721460098FFF737FD00280D
S2144089B092D1C24671E75A46294600F00BFDA2689E
S2144089C02368A2EB0B025B44A2602360AFE72068FB
S2144089D0B846BA46BB4655E762692068216902EB4D
S2144089E04208A0EB010A08EBD8780AF101004FEAEA
S2144089F0680838444045424684BF804642465B0548
S214408A0044D51146009800F033F98346002855D0E7
S214408A105246216900F044FCA38923F4906343F056
S214408A208003A3810BEB0A00A8EB0A03C4F810B03E
S214408A30C4F814802060A360B846BA46BB4621E717
S214408A406FF00041B94228BF39464A4691FBF3F1E0
S214408A500098666A03FB01F3E169B047B0F1000A8B
S214408A603FF71BAF38E71A462946019300F0B2FCA1
S214408A702268019B00981A4422602146FFF7CEFCEC
S214408A80019B00287FF428AF1F4650E7009801F06E
S214408A900DF883460028C5D1009D21692846FFF77A
S214408AA0B7FDB4F90C300C2223F080032A6015E79A
S214408AB006F1010922E74FF0FF30BFE6009A0C238B
S214408AC01360B4F90C3009E700FCFF7F2DE9F8434A
S214408AD010F538771FD0884606464FF000097D6867
S214408AE0BC68013D11D4A389012B05F1FF3508D997
S214408AF0B4F90E3001332146304602D0C04749EA29
S214408B0000096B1C04F16804EDD13F68002FE6D1E4
S214408B104846BDE8F883B9464846BDE8F88300BFF6
S214408B20044B054A1B685B6B002B08BF134693F843
S214408B3028017047280000205C040020D0F8EC0094
S214408B40704700BF044A054B1268506B002808BFA8
S214408B501846F030704700BF280000205C04002014
S214408B60704700BF704700BF704700BF704700BFE8
S214408B7070B50C46B1F90E10002990B015461E4649
S214408B8014DB01AA01F086FB00280FDB029A02F4F0
S214408B907042A2F50052B2FA82F252094FF4806354
S214408BA04FF4006032602B6010B070BDA289002385
S214408BB012F08000336004D0402218462A6010B07D
S214408BC070BD4FF480632B6010B070BD8A899207E9
S214408BD00B4606D501F1430201211A601A6159611C
S214408BE07047F0B583B001AB6A460C460646FFF7C1
S214408BF0BFFF00990546304600F03AF8B4F90C300D
S214408C00D8B1019A154F0099F76343F08003A381CA
S214408C102060206161611AB92B43A38103B0F0BD87
S214408C203046B4F90E1001F049FBA0B1A38923F0F9
S214408C30030343F001031BB2EEE79A05EED423F09C
S214408C40030304F1430243F002030121A38122609F
S214408C5022616161E2E7B4F90C30DDE771844000DF
S214408C60024B0146186800F003B800BF28000020F9
S214408C702DE9F04F01F10B06162E83B0054640F263
S214408C809E8036F0070600F1BD80B14200F2BA8001
S214408C9000F004FCB6F5FC7FC0F09382730A00F047
S214408CA0B880042B00F27981B30903F1390003F14F
S214408CB0380EC300BF4F3B44A3F108015C68A14295
S214408CC006D10CE0002A80F2AA80E468A14206D0D1
S214408CD0636823F003039A1B0F2AF3DD70463C6952
S214408CE0DFF8E4E2744500F0AB81636823F00303E9
S214408CF09A1B0F2A00F39081002AC7F814E0C7F8A1
S214408D0010E080F29D80B3F5007F80F06181DB0843
S214408D1003F1010C99107A6857F83C80C4F8088033
S214408D2001238B4007EBCC0113430839E1607B609D
S214408D3047F83C40C8F80C408210012494409C42BE
S214408D4000F28B801C4206D120F0030064001C42D7
S214408D5000F10400FAD007EBC009CC468046DCF8A8
S214408D600C309C4507D16DE1002A80F27B81DB68A0
S214408D709C4500F06781596821F003018A1B0F2A41
S214408D80F2DDD3F80CC0D3F8088000939C1928462F
S214408D9046F0010642F001055E60C8F80CC0CCF80B
S214408DA008807C613C61C4F80CE0C4F808E065606B
S214408DB05A5000F079FB009B03F108041EE010298E
S214408DC020D800F06BFB102618230220794F3B4436
S214408DD0A3F108025C68944200F03D816368E16854
S214408DE0A66823F00303234428465A68F16042F0FD
S214408DF001028E605A6000F057FB0834204603B0EC
S214408E00BDE8F08F00240C2320462B6003B0BDE85D
S214408E10F08F40204FF400734FF03F0E4AE7234454
S214408E20E1685A68A66842F00102F16028468E6002
S214408E305A6000F039FB0834204603B0BDE8F08F96
S214408E40234428465A6842F001025A6000F02CFB40
S214408E500834204603B0BDE8F08FBC68636823F052
S214408E600308B04504D3A8EB06030F2B00F3858018
S214408E70DFF85891504BD9F800201B680132334434
S214408E8004EB080A00F0558103F580530F3323F4B2
S214408E907F6B2BF00F0B5946284600F0ADFF411C68
S214408EA0024600F0FC80824500F2F780434B19688A
S214408EB05944196000F04D81D9F8000001301BBFBD
S214408EC0A2EB0A0A5144C9F80020196012F00701C3
S214408ED000F01581C1F10800C1F580510244083107
S214408EE002EB0B09C9F30B09A1EB090949462846D1
S214408EF00193009200F080FF431C9DE80C0000F0B8
S214408F004381801A484440F001001968BA604944D9
S214408F10BC425060196017D0B8F10F0F40F2FB808A
S214408F206068A8F10C0222F0070204EB020E00F083
S214408F3001004FF0050C10430F2A6060CEF804C0C5
S214408F40CEF808C000F217811D4BBC681A689142E3
S214408F5088BF19601B4B1A689142626888BF1960C7
S214408F6022F003029642A2EB060301D80F2B04DC44
S214408F70284600F099FA002440E7A21943F001037E
S214408F8046F0010666602846BA60536000F08CFAE8
S214408F900834204603B0BDE8F08F142B71D9542B0B
S214408FA000F2A380330B03F16F0003F16E0EC30093
S214408FB080E600BFC80500206C0A00203C0A00205E
S214408FC0640A0020680A0020D0050020D00900204E
S214408FD05A0A042A5BD9142A00F2AE8002F15C01D8
S214408FE0C9005B3207EB010C7958ACF1080C8C4594
S214408FF000F088804A6822F00302934273D2896860
S2144090008C45F7D1DCF80C207B68E260C4F808C0D9
S2144090109460CCF80C408FE6A11946F0010C42F063
S2144090200106C4F804C0284679613961C1F80CE0ED
S214409030C1F808E04E60E25000F036FA0834DDE64B
S2144090407B6879E608F1010818F0030F0CF1080C6C
S2144090507FF485AE2DE0DC68A34208BF02303FF4C3
S2144090603EAEBBE619441C464A68DB6854F8086FB7
S21440907042F001024A602846F3609E6000F014FA0F
S214409080BCE603F15C0003F15B0EC30012E69A09EE
S21440909002F13901C9003832A4E7BC4254D0BC685A
S2144090A0626822F003025DE759F80839994540F0B6
S2144090B0868010F0030F00F1FF30F5D17B6823EA7D
S2144090C004037B6064009C423FF6C7AE002C3FF42E
S2144090D0C4AE1C4240467FF43EAE64001C4200F1E3
S2144090E00400FAD037E68C468CE7B3F5AA7F15D84D
S2144090F0F30B03F1780003F1770EC300DAE54FF483
S2144091008051EDE67B689210012101FA02F213438A
S2144091107B60624679E70123536029E740F2545268
S214409120934222D8B30C03F17D0003F17C0EC300BA
S214409130C0E503F1100BAEE6542A29D81A0B02F10B
S2144091406F01C9006E324DE7204B196859441960CB
S214409150B2E6CAF30B0000287FF4AEAE08EB0B0372
S214409160BA6843F001035360EEE67F204FF47E7307
S2144091704FF07E0E9EE504F1080128460093FFF767
S21440918047FA009B1968DFE601204FF00009BCE66D
S214409190B2F5AA7F05D8DA0B02F17801C90077321A
S2144091A020E740F254518A4205D89A0C02F17D01DC
S2144091B0C9007C3216E74FF47E717E2212E77B6848
S2144091C080E7F00806F1080300E600BF3C0A0020EE
S2144091D082B049B15AB16BB113780B601278101C4B
S2144091E018BF012002B0704701A9002AF3D11046EB
S2144091F002B070476FF00100F4E700BF00000000C7
S21440920001F0FF01102A2BDB10F0070F08D010F8F2
S214409210013B013A8B422DD010F0070F42B3F6D1F6
S214409220F0B441EA012141EA014122F007047FF00F
S21440923000070023F0E80256083C85EA010586EA66
S214409240010685FA47F5A3FA87F586FA47F6A5FAA2
S21440925087F68EB9EED1F0BC01F0FF0102F00702AE
S21440926032B110F8013B013A83EA010313B1F8D159
S2144092700020704701387047002D06BF354603383A
S214409280073815F0010F07D1013015F4807F02BF73
S214409290013015F4C03F0130F0BC0138704700BFC4
S2144092A0844641EA000313F003036DD1403A41D3AC
S2144092B051F8043B40F8043B51F8043B40F8043B6B
S2144092C051F8043B40F8043B51F8043B40F8043B5B
S2144092D051F8043B40F8043B51F8043B40F8043B4B
S2144092E051F8043B40F8043B51F8043B40F8043B3B
S2144092F051F8043B40F8043B51F8043B40F8043B2B
S21440930051F8043B40F8043B51F8043B40F8043B1A
S21440931051F8043B40F8043B51F8043B40F8043B0A
S21440932051F8043B40F8043B51F8043B40F8043BFA
S214409330403ABDD2303211D351F8043B40F8043B9A
S21440934051F8043B40F8043B51F8043B40F8043BDA
S21440935051F8043B40F8043B103AEDD20C3205D3AA
S21440936051F8043B40F8043B043AF9D2043208D0A2
S214409370D2071CBF11F8013B00F8013B01D30B8814
S21440938003806046704700BF082A13D38B078DD0F2
S21440939010F003038AD0C3F10403D21ADB071CBFC4
S2144093A011F8013B00F8013B80D331F8023B20F82E
S2144093B0023B7BE7043AD9D3013A11F8013B00F867
S2144093C0013BF9D20B7803704B7843708B788370EF
S2144093D0604670478842F0B50DD98B1898420AD23D
S2144093E08418002A51D0224613F8014D02F8014D48
S2144093F09942F9D1F0BD0F2A48D941EA00039B07AC
S21440940046D100F1100401F11003154653F8106CD4
S21440941044F8106C53F80C6C44F80C6C53F8086C19
S21440942044F8086C103D53F8046C44F8046C0F2D57
S21440943003F1100304F11004E8D8A2F1100323F05E
S2144094400F0302F00F0E1033BEF1030F194403440E
S21440945021D91E1F0D467446043C55F8047B46F839
S214409460047F032CF8D8AEF1040424F0030404343B
S2144094702144234402F0030262B1013B0A4411F83E
S214409480014B03F8014F8A42F9D1F0BD0346F3E79A
S2144094900346F2E7F0BD7246EEE700BF0148FFF72D
S2144094A063BB00BF8C2A00200148FFF75FBB00BFAC
S2144094B08C2A0020C36C70B505460C464BB153F859
S2144094C0240080B1026843F8242000230361C3606F
S2144094D070BD2122042100F0B5FDE8640346002853
S2144094E0EDD1002070BD012101FA04F6721D284618
S2144094F0920000F0A7FD0028F3D044608660E4E7C1
S21440950031B1C36C4A6853F82200086043F8221011
S214409510704700BFF0B50C6983B00D46064601F1B2
S214409520140E0027DEF8000081B202FB0133010C66
S214409530180C02FB01019BB2013703EB0143BC420E
S2144095404EF8043B4FEA1143ECDC3BB1AA68944228
S21440955007DA05EB8402013453612C61284603B0D8
S214409560F0BD6968019301313046FFF7A3FF2A69D1
S214409570023205F10C01074692000C30FFF790FED0
S214409580F26C6968019B52F82100286042F821502D
S2144095903D46DEE7020C12040346B2B9030410202F
S2144095A013F07F4F04BF1B02083013F0704F04BF08
S2144095B01B01043013F0404F04BF9B000230002BC9
S2144095C002DB5B0003D4202070470020E8E7013030
S2144095D0704700BF036813F00702014607D0DA075A
S2144095E021D4980721D49B080B600220704798B27C
S2144095F098B1104613F0FF0F04BF1B0A08301A0735
S21440960004BF1B0904309A0704BF9B080230DA07E0
S21440961007D45B0804D1202070471B0C1020E9E7D4
S21440962001300B607047002070475B080B600120DC
S214409630704700BF10B50C460121FFF73BFF0122E3
S2144096404461026110BD00BF2DE9F04F0C691569F9
S214409650AC4283B08B46164604DA2246B3462C46C6
S2144096600E461546DBF80830DBF8041004EB050818
S2144096709845C8BF0131FFF71DFF00F1140909EBFB
S214409680880AD145009005D24B46002143F8041B7A
S2144096909A45FBD806F1140C0CEB85030BF1140B22
S2144096A09C450BEB840E4CD2CDF804A09A46DCF8D1
S2144096B00050AFB2EFB100214D465E460C4656F81C
S2144096C0042B286893B281B207FB0313120C010CDB
S2144096D0234407FB021101EB13419BB243EA0143CB
S2144096E0B64545F8043B4FEA1144E8D82C60DCF810
S2144096F000502D0C1DD0D9F8003048461C4659461F
S21440970000220E88240C05FB064422449BB243EA02
S214409710024340F8043B51F8043B04681B0CA6B2D5
S21440972005FB036303EB12438E454FEA1342E8D82A
S21440973003600CF1040CE24509F10409B7D8DDF8E2
S21440974004A0B8F1000F0BDD5AF8043CAAF1040A55
S2144097501BB105E05AF8043D13B9B8F10108F9D138
S2144097600098C0F8108003B0BDE8F08F12F00303F5
S2144097702DE9F041144607462ED10D46A4101CD0C4
S214409780BE6C96B3E3074FF0000806D4641014D0BE
S2144097903068A8B10646E307F8D53246294638462B
S2144097A0FFF752FFB5B16A68FB6C641053F822109D
S2144097B0296043F822500546EAD12846BDE8F081A4
S2144097C0324631463846FFF73FFF3060C0F80080EB
S2144097D00646E0E70546D9E75A1E0B4D002355F8E6
S2144097E02220FFF797FE0546C8E701213846FFF7D7
S2144097F061FE40F27121012200234161026106466A
S214409800B8640360BEE700BF80AB40002DE9F84374
S21440981091460A698B684FEA691404EB020808F11E
S21440982001059D420E460746496804DD5B009D42A1
S21440983001F10101FADC3846FFF73CFE002C00F14E
S214409840140306DD03EB8402002143F8041B9A420E
S214409850FBD1346906F1140119F01F0901EB840E9F
S2144098601DD0C9F1200C00220C6804FA09F41443F8
S21440987043F8044B51F8042B8E4522FA0CF2F3D8E9
S2144098801A600AB108F10205FB6C7268013D53F894
S21440989022100561316043F82260BDE8F883043B3E
S2144098A051F8042B43F8042F8E45F9D8ECE700BF57
S2144098B030B40B6905460069C01A0FD19B001435B9
S2144098C0143119442B4401E09D4207D253F8044D0D
S2144098D051F8042D9442F7D002D3012030BC704793
S2144098E04FF0FF30FAE700BF2DE9F0410F690E4612
S2144098F011697F1A002F904617D1890006F114058A
S21440990002F1140E6B18714401E09D425CD253F88C
S214409910042D51F8044DA242F7D05ED233462C4671
S214409920464675469846012705E058DB06F114057D
S21440993008F1140400277168FFF7BCFDD8F8103012
S2144099403669C76004EB830CA64605EB860700F134
S214409950140400235EF8041B55F8048B8AB213FAED
S21440996088F3090C9A1AC1EB184303EB224392B2D0
S21440997042EA0342F44544F8042B4FEA2343E9D82D
S214409980AF4217D9A446AE465EF8042B13FA82F3CC
S214409990191401EB12419BB243EA014277454CF859
S2144099A0042B4FEA2143EFD8ED432F4427F003071B
S2144099B004373C44043C22B954F8043D013E002B95
S2144099C0FAD00661BDE8F0810021FFF773FD012261
S2144099D0002302614361BDE8F0817446ABE733463D
S2144099E006F1140402F11405164601279846A2E72C
S2144099F02DE9F04357EC106B83B0884601213C4676
S214409A00C7F30A551746FFF755FDC4F313048146BE
S214409A100DB144F4801401941EB302A840F8086DBA
S214409A20FFF7D8FD002834D19DE80C00C9F8142073
S214409A30002B0CBF01210221C9F81830C9F81010BC
S214409A40DDB909EB8103A0F23240C8F8000018697E
S214409A50FFF7A0FDC0EB41103860484603B0BDE8B4
S214409A60F08301A8FFF7B6FD019BC9F81430012129
S214409A702030C9F81010002DE3D0A5F23345054438
S214409A80C0F13500C8F800503860484603B0BDE81D
S214409A90F0839DE80A00C0F1200203FA02F20A436E
S214409AA0C3400193C9F81420C2E700BF002900F064
S214409AB095802DE9F04F0D46164683B0804606F158
S214409AC00B07FFF7EBFC55F804EC162F2EF00304BB
S214409AD0A5F108093CD810221746BE423DD894420C
S214409AE043DAC44B996809EB0400884200F0B4801E
S214409AF0436823F0010101444968C9074CD51EF06C
S214409B00010F00F09B8031464046FFF7B1F806460D
S214409B1000283AD055F8043C23F001034B44A0F10A
S214409B2008029A4200F02181221F242A00F207816F
S214409B30132A00F2DB8003462A46116819605168F2
S214409B40596092689A6029464046FEF761FD1CE0DF
S214409B5027F00707002F3A46BFDA00260C23304688
S214409B60C8F8003003B0BDE8F08F2E46E31B0F2B3D
S214409B701ED8D9F8043003F0010323434C44C9F8F7
S214409B800430636843F0010363604046FFF78CFC93
S214409B90304603B0BDE8F08F23F00303E11891424E
S214409BA01FDBC36882682E46D3600C469A60DDE7AA
S214409BB0D9F8042009EB070102F001024C4443F0B7
S214409BC001031743C9F804704B60636843F0010310
S214409BD0083163604046FEF71BFDD6E71146FFF7A7
S214409BE047B81EF0010F8ED155F8081CA9EB010AA4
S214409BF0DAF8041021F003010B442344934225DB9A
S214409C00C26881685646CA609160DAF80C1056F809
S214409C10080F221F242AC160886000F29480132A0D
S214409C206FD92968CAF808106968CAF80C101B2A48
S214409C3000F2A28008350AF1100263E055F8083CAD
S214409C40A9EB030ADAF8041021F0030163189342E3
S214409C50FFF659AF5646D8E7416821F0030BA344B8
S214409C6007F11000834556DA1EF0010F7FF44BAF24
S214409C7055F8081CA9EB010ADAF8041021F0030194
S214409C808B445845E2DC5646DAF80C1056F8080F76
S214409C90221F242AC160886000F28F80132A40F277
S214409CA08A802968CAF808106968CAF80C101B2A06
S214409CB000F28A8008350AF1100229681160696846
S214409CC05160A96891600AEB0701ABEB070242F0CE
S214409CD0010299604A60DAF8043003F001031F433A
S214409CE04046CAF80470FFF7DFFB51E72B68036075
S214409CF06B6843601B2A2DD800F1080305F1080263
S214409D001BE732462968116069685160A96891600E
S214409D101C46D1462AE709EB0701ABEB070B4BF095
S214409D20010299604A6055F8043C03F001031F4362
S214409D30404645F8047CFFF7B7FB2E4628E7294601
S214409D40FFF748FBFFE6294630461C46D146FFF75C
S214409D5041FB0BE7AB688360EB68C360242A17D0EF
S214409D6000F1100305F11002E7E650F8043C23F03A
S214409D7003031C442E46F9E6A968CAF81010E968A1
S214409D80CAF81410242A0CD010350AF11802B9E784
S214409D902B6903616B69436105F1180200F11803F2
S214409DA0CBE62A69CAF818206A69CAF81C20183512
S214409DB00AF12002A6E732467FE72946304601935D
S214409DC0FFF708FB019B7EE7A968CAF81010E96810
S214409DD0CAF81410242A03D010350AF118026CE78A
S214409DE02A69CAF818206A69CAF81C2018350AF188
S214409DF0200262E7C805002038B5074C0023054618
S214409E0008462360F7F72AFC431C00D038BD236879
S214409E10002BFBD02B6038BDA02A002010B50C4686
S214409E20B1F90E1000F072FA002803DB236D0344EC
S214409E30236510BDA38923F48053A38110BD00BFC2
S214409E402DE9F0411646B1F90C201F46D3050C46C5
S214409E50054607D500220223B1F90E1000F040FA5D
S214409E60B4F90C20B4F90E1022F48052A2813B467D
S214409E7032462846BDE8F04100F06CB810B50C46B6
S214409E80B1F90E1000F02CFAA389421C0EBF23F441
S214409E90805343F480532065A38110BDB1F90E1062
S214409EA000F000B92DE9F84F4B6E9C0493462FD531
S214409EB09368126853B30E46074602F1080919E93B
S214409EC020045FEA9A0817D0043D002401E0A0452C
S214409ED010D0324655F8041F384600F0A7F9431C08
S214409EE004F10104F3D10023CBF80830CBF804305A
S214409EF0BDE8F88FDBF808302AF0030AA3EB0A0324
S214409F00CBF8083009F10809002BD8D10020EAE741
S214409F10FEF764FC0023CBF80830CBF80430BDE8ED
S214409F20F88F00BF93680BB1FFF7BCBF10B418465C
S214409F3053605DF8044B704721B1FF2A04D80A707D
S214409F4001207047084670478A2303604FF0FF3071
S214409F50704700BF70B50D46084C114606461A4677
S214409F60284600232360F7F7D9FB431C00D070BD7A
S214409F702368002BFBD0336070BD00BFA02A0020B2
S214409F802DE9F8432C4D0646286898460F469146DC
S214409F90FEF7EAFD294B1C68D4F84831002B3ED02A
S214409FA05A681F2A1CDC02F1010E76B103EB8201CF
S214409FB00124C1F88890D3F8880194402043022EAB
S214409FC0C3F88801C1F8088123D00232C3F804E000
S214409FD0286843F82270FEF7C9FD0020BDE8F883E4
S214409FE0174B0BB34FF4C870FEF73AFE0346D8B192
S214409FF0D4F848210260002141600A46C4F848016E
S21440A0004FF0010EC0F88811C0F88C11002EDCD03D
S21440A010CCE7D3F88C110C43C3F88C41D5E704F554
S21440A020A673C4F84831BBE72868FEF79FFD4FF09B
S21440A030FF30BDE8F88300BF5804002000AA400067
S21440A040618C400010B502FB01F1FEF711FE04469C
S21440A050D8B150F8042C22F00302043A242A18D827
S21440A060132A14D900231B2A0360436016D9242AD6
S21440A0708360C36011BF00F110020361436100F1C9
S21440A08018020023136053609360204610BD0246BA
S21440A090F7E70021FBF73AFB204610BD00F1080227
S21440A0A0EFE700BF38B5074C002305460846236057
S21440A0B0F7F700FB431C00D038BD2368002BFBD0CD
S21440A0C02B6038BDA02A002070B559B105460C4615
S21440A0D010B1836B002B3CD0636ED80705D5B4F91E
S21440A0E00C302BB90026304670BDA38999053CD567
S21440A0F021462846FEF7F2F8E36A064633B1E169A0
S21440A100284698470028B8BF4FF0FF36A3891A065E
S21440A11022D4216B41B104F14003994202D0284633
S21440A120FEF776FA00232363616C21B12846FEF7DA
S21440A1306FFA00236364FEF7F5F9636E0022DB07CF
S21440A140A2810ED5A06DFEF70DFDFEF7F1F9304663
S21440A15070BDFEF7BBF9BFE721692846FEF758FAFF
S21440A160D7E7A06DFEF702FDECE7A06DFEF7FCFC1E
S21440A170B4F90C30002BBBD1666E16F00106B1D197
S21440A180A06DFEF7F3FC304670BD00BF2DE9F047EA
S21440A19082B0804689461446FEF7C2FC012836D077
S21440A1A04A4604F15C0301A9404600F01DF9421CF2
S21440A1B0064625D0A8B39DF804E000250DF1040A14
S21440A1C009E023685A1C226083F800E00135B54256
S21440A1D027D215F80AE0A368013B002BA360F0DA0B
S21440A1E0A769BB4271462246404602DBBEF10A0FD3
S21440A1F0E7D100F0A1F8431CE8D102B0BDE8F087F3
S21440A200A38943F04003A38102B0BDE8F08709F17B
S21440A210FF33FE2BC4D85FFA89FE06468DF804E06D
S21440A220CBE7484602B0BDE8F08700BF30B5536E76
S21440A23013F0010FB2F90C30144683B005469AB2BB
S21440A24001D190051CD5900406D4626E43F40053A9
S21440A25042F40052A381626628462246FFF796FFE4
S21440A260636EDA07054602D4A3899B0502D52846C5
S21440A27003B030BDA06DFEF779FC284603B030BD74
S21440A280A06D0191FEF770FCB4F90C3001999AB2BA
S21440A290D9E700BF38B50B46074C05461146184669
S21440A2A000232360F7F712FA431C00D038BD23681A
S21440A2B0002BFBD02B6038BDA02A002038B5074CB9
S21440A2C00023054608462360F7F710FA431C00D0E3
S21440A2D038BD2368002BFBD02B6038BDA02A002059
S21440A2E070B50D46084C114606461A4628460023C9
S21440A2F02360F7F706FA431C00D070BD2368002B96
S21440A300FBD0336070BD00BFA02A002070B50D465C
S21440A310084C114606461A46284600232360F7F79F
S21440A32033FA431C00D070BD2368002BFBD033604B
S21440A33070BD00BFA02A0020F8B50D46144606465C
S21440A34010B1836B002B4BD0B4F90C20A369A360EB
S21440A35091B2080739D52369002B36D0EDB289046F
S21440A3602F4615D522686169D31A8B421CDA013311
S21440A370A168501C0139A1602060157062699A423C
S21440A3801AD0A389DB0701D50A2D15D03846F8BD6B
S21440A390616E42F4005221F40051A2812268616647
S21440A3A06169D31A8B42E2DB21463046FEF736F827
S21440A3B040B922680123DBE721463046FEF72EF8F7
S21440A3C00028E3D04FF0FF37E0E721463046FCF761
S21440A3D057FF0028F6D1B4F90C20236991B2BDE7A7
S21440A3E0FEF774F8B0E700BFF0B5064685B01F46E6
S21440A3F089B1104C104D2468646B002C08BF2C4665
S21440A400D4F8E040A047431C03D100228A233A6098
S21440A410336005B0F0BD0C460649074A0968496BEB
S21440A420002908BF11462246D1F8E04001A9A047BE
S21440A430E9E700BF280000205C04002053B94AB971
S21440A440002908BF00281CBF4FF0FF314FF0FF30F7
S21440A45000F07AB9ADF1080C6DE904CE00F006F8CC
S21440A460DDF804E0DDE9022304B070472DE9F0474B
S21440A4708C460D460446089E002B51D18A4217460C
S21440A4806DD9B2FA82FEBEF1000F0BD0CEF1200C91
S21440A49001FA0EF520FA0CFC02FA0EF74CEA050C0F
S21440A4A000FA0EF44FEA174A250CBCFBFAF81FFADE
S21440A4B087F90AFB18CC45EA0C4508FB09F3AB4282
S21440A4C00AD9ED1908F1FF3280F02381AB4240F201
S21440A4D02081A8F102083D44ED1AA4B2B5FBFAF07B
S21440A4E00AFB105544EA054400FB09F9A14509D981
S21440A4F0E41900F1FF3380F00A81A14540F207815C
S21440A50002383C44A4EB090440EA08400021002EEF
S21440A51061D024FA0EF4002334607360BDE8F087FF
S21440A5208B4207D9002E54D0002186E821000846E9
S21440A530BDE8F087B3FA83F1002940F08E80AB4245
S21440A54002D3824200F2FA80841A65EB03050120AA
S21440A550AC46002E3FD086E81010BDE8F08712B912
S21440A5600127B7FBF2F7B7FA87FEBEF1000F34D1EA
S21440A570EB1B3A0C1FFA87FC0121B3FBF2F8250CC3
S21440A58002FB183345EA03450CFB08F3AB4207D9F8
S21440A590ED1908F1FF3002D2AB4200F2D18080467E
S21440A5A0ED1AA3B2B5FBF2F002FB105543EA0544A0
S21440A5B00CFB00FCA44507D9E41900F1FF3302D296
S21440A5C0A44500F2B8801846A4EB0C0440EA0840C4
S21440A5D09DE731463046BDE8F087CEF1200405FAC7
S21440A5E00EF307FA0EF720FA04F83A0C25FA04F4AC
S21440A5F048EA0308B4FBF2F14FEA184502FB11445F
S21440A6001FFA87FC45EA044501FB0CF3AB4200FA0F
S21440A6100EF409D9ED1901F1FF3080F08A80AB4283
S21440A62040F2878002393D44EB1A1FFA88F5B3FBA7
S21440A630F2F002FB103345EA034500FB0CF3AB4255
S21440A64007D9ED1900F1FF386FD2AB426DD9023809
S21440A6503D44EB1A40EA01418FE7C1F1200722FA58
S21440A66007F88B4005FA01F448EA030320FA07FE90
S21440A6704FEA134CFD404EEA040EB5FBFCF94FEA98
S21440A6801E440CFB19551FFA83F844EA054509FB9E
S21440A69008F4AC4202FA01F200FA01FA08D9ED18C1
S21440A6A009F1FF3043D2AC4241D9A9F102091D4419
S21440A6B02D1B1FFA8EFEB5FBFCF00CFB10554EEA28
S21440A6C0054400FB08F8A04507D9E41800F1FF351B
S21440A6D029D2A04527D902381C4440EA0940A4EBB9
S21440A6E00804A0FB02894C45C6464D4615D312D0F9
S21440A6F056B1BAEB0E0364EB050404FA07F7CB40F9
S21440A7001F43CC40376074600021BDE8F087184690
S21440A710F8E69046E0E6C245EAD2B8EB020E69EBB0
S21440A72003050138E4E72846D7E7404691E78146E7
S21440A730BEE7014678E702383C4445E7084608E766
S21440A740A8F102083D442BE7704700BF4175646995
S21440A7506F20436F64656320496E697469616C69F4
S21440A7607A65640D0A0000004932534320496E69F9
S21440A7707469616C697A65640D0A00006672657179
S21440A7802025670D0A0000006761696E206462201C
S21440A79025670D0A00000000512025670D0A0000BD
S21440A7A06670752C2025640D0A0000000D0A426F65
S21440A7B06172645F496E6974207375636365737311
S21440A7C066756C0D0A4E6F77207374617274696E8D
S21440A7D0672070726F6772616D0D0A00545749208A
S21440A7E0496E697469616C697A65640D0A00000097
S21440A7F05541525420496E697469616C697A656442
S21440A8002077697468207072696E74660D00000067
S21440A8106C6F6700706F7700FB21F93FFB210940A2
S21440A8207CD91240FB2119407A6A1F407CD92240CD
S21440A830BBFD2540FB2129403A462C407A6A2F40F2
S21440A8405C4731407CD932409C6B3440BBFD354040
S21440A850DB8F3740FB2139401BB43A403A463C40F8
S21440A8605AD83D407A6A3F404C7E40405C47414023
S21440A8706C1042407CD942408CA243409C6B444082
S21440A880AC344540BBFD4540CBC64640DB8F4740D9
S21440A890EB584840FB21494083F9A200444E6E00E5
S21440A8A0FC291500D1572700DD34F50062DBC000D7
S21440A8B03C999500419043006351FE00BBDEAB00DF
S21440A8C0B761C5003A6E2400D24D42004906E0000A
S21440A8D009EA2E001C92D100EB1DFE0029B11C0097
S21440A8E0E83EA700F535820044BB2E009CE9840074
S21440A8F0B4267000417E5F00D691390053833900FC
S21440A9009CF439008B5F840028F9BD00F81F3B009B
S21440A910DEFF97000F980500112FEF000A5A8B00B4
S21440A9206D1F6D00CF7E360009CB2700464FB7001F
S21440A9309E663F002DEA5F00BA277500E5EBC7002C
S21440A9403D7BF100F739070092528A00FB6BEA0024
S21440A9501FB15F00085D8D00300356007BFC46004B
S21440A960F0AB6B0020BCCF0036F49A00E3A91D0084
S21440A9705E619100081BE60085996500A0145F00A3
S21440A9808D40680080D8FF0027734D0006063100D2
S21440A990CA561500C9A873007BE260006B8CC000E5
S21440A9A000000040FB21F93F000000002D44743EAB
S21440A9B0000000809846F83C0000006051CC783B90
S21440A9C000000080831BF0390000004020257A38C4
S21440A9D0000000802282E336000000001DF3693547
S21440A9E00200000003000000040000000600000013
S21440A9F0000000000000304300000000000030C3AC
S21440AA00300000200A000000494E4600696E66008D
S21440AA104E414E006E616E0030313233343536373B
S21440AA203839414243444546000000003031323315
S21440AA303435363738396162636465660000000035
S21440AA40286E756C6C290000300000002020202005
S21440AA502020202020202020202020203030303071
S21440AA60303030303030303030303030496E6669DB
S21440AA706E697479000000004E614E00430000008D
S21440AA80504F5349580000002E00000000000000C0
S21440AA900080E03779C34143176E05B5B5B8934695
S21440AAA0F5F93FE9034F384D321D30F94877825A61
S21440AAB03CBF737FDD4F1575000000000000F03F7F
S21440AAC00000000000002440000000000000594044
S21440AAD00000000000408F40000000000088C34097
S21440AAE000000000006AF8400000000080842E410C
S21440AAF000000000D01263410000000084D7974158
S21440AB000000000065CDCD41000000205FA002425D
S21440AB10000000E876483742000000A2941A6D42D2
S21440AB20000040E59C30A2420000901EC4BCD642C5
S21440AB3000003426F56B0C430080E03779C3414370
S21440AB4000A0D8855734764300C84E676DC1AB43E6
S21440AB50003D9160E458E143408CB5781DAF154404
S21440AB6050EFE2D6E41A4B4492D54D06CFF08044DF
S21440AB70F64AE1C7022DB544B49DD9794378EA44F4
S21440AB8005000000190000007D0000000020202085
S21440AB902020202020202828282828202020202048
S21440ABA02020202020202020202020202088101018
S21440ABB01010101010101010101010101004040474
S21440ABC00404040404040410101010101010414132
S21440ABD04141414101010101010101010101010120
S21440ABE00101010101010101101010101010424234
S21440ABF042424242020202020202020202020202F0
S21440AC00020202020202020210101010200000008F
S21440AC1000000000000000000000000000000000EF
S21440AC2000000000000000000000000000000000DF
S21440AC3000000000000000000000000000000000CF
S21440AC4000000000000000000000000000000000BF
S21440AC5000000000000000000000000000000000AF
S21440AC60000000000000000000000000000000009F
S21440AC70000000000000000000000000000000008F
S21440AC80000000000000000000000000000000007F
S21440AC90F8B500BFF8BC08BC9E46704749734000F4
S21440ACA02D014000F8B500BFF8BC08BC9E46704772
S20840ACB00901400011
S20C40ACB4B8F7FF7F0100000025
S21440ACBC00127A0000007A440000FA44000000407B
S21440ACCC0002004030313233343536373839414261
S21440ACDC43444546000100003000002000000000C0
S21440ACEC000000001C03002084030020EC0300201E
S21440ACFC0000000000000000000000000000000003
S21440AD0C00000000000000000000000000000000F2
S21440AD1C00000000000000000000000000000000E2
S21440AD2C00000000000000000000000000000000D2
S21440AD3C00000000000000000000000000000000C2
S21440AD4C00000000000000000000000000000000B2
S21440AD5C00000000000000000000000000000000A2
S21440AD6C0000000000000000000000000000000092
S21440AD7C0000000000000000000000000000000082
S21440AD8C0000000000000000010000000000000071
S21440AD9C0E33CDAB34126DE6ECDE05000B00000036
S21440ADAC0000000000000000000000000000000052
S21440ADBC0000000000000000000000000000000042
S21440ADCC0000000000000000000000000000000032
S21440ADDC0000000000000000000000000000000022
S21440B10C00000000000000007C2A002043000000E5
S21440B11C00000000000000000000000000000000DE
S21440B12C000000000000000000000000430000008B
S21440B13C00000000000000000000000000000000BE
S21440B14C000000000000000000000000430000006B
S21440B15C000000000000000000000000000000009E
S21440B16C000000000000000000000000430000004B
S21440B17C000000000000000000000000000000007E
S21440B18C000000000000000000000000430000002B
S21440B19C000000000000000000000000000000005E
S21440B1AC000000000000000000000000430000000B
S21440B1BC000000000000000000000000000000003E
S21440B1CC00000000000000000000000043000000EB
S21440B1DC000000000000000000000000000000001E
S21440B1EC000000000000000000000000399F4000F6
S21440B1FCD1914000000000008CAB400088AA400073
S21440B20C28AA400028AA400028AA400028AA4000A5
S21440B21C28AA400028AA400028AA400028AA400095
S21440B22C28AA4000FFFFFFFFFFFFFFFFFFFFFFFFC7
S21440B23CFFFF000001004153434949000000000055
S21440B24C00000000000000000000000000000000AD
S21440B25C0000000000004153434949000000000034
S21440B26C000000000000000000000000000000008D
S21440B27C000000000000000000000000000000007D
S21440B28CC8050020C8050020D0050020D0050020A9
S21440B29CD8050020D8050020E0050020E005002059
S21440B2ACE8050020E8050020F0050020F005002009
S21440B2BCF8050020F80500200006002000060020B7
S21440B2CC0806002008060020100600201006002065
S21440B2DC1806002018060020200600202006002015
S21440B2EC28060020280600203006002030060020C5
S21440B2FC3806002038060020400600204006002075
S21440B30C4806002048060020500600205006002024
S21440B31C58060020580600206006002060060020D4
S21440B32C6806002068060020700600207006002084
S21440B33C7806002078060020800600208006002034
S21440B34C88060020880600209006002090060020E4
S21440B35C9806002098060020A0060020A006002094
S21440B36CA8060020A8060020B0060020B006002044
S21440B37CB8060020B8060020C0060020C0060020F4
S21440B38CC8060020C8060020D0060020D0060020A4
S21440B39CD8060020D8060020E0060020E006002054
S21440B3ACE8060020E8060020F0060020F006002004
S21440B3BCF8060020F80600200007002000070020B2
S21440B3CC0807002008070020100700201007002060
S21440B3DC1807002018070020200700202007002010
S21440B3EC28070020280700203007002030070020C0
S21440B3FC3807002038070020400700204007002070
S21440B40C480700204807002050070020500700201F
S21440B41C58070020580700206007002060070020CF
S21440B42C680700206807002070070020700700207F
S21440B43C780700207807002080070020800700202F
S21440B44C88070020880700209007002090070020DF
S21440B45C9807002098070020A0070020A00700208F
S21440B46CA8070020A8070020B0070020B00700203F
S21440B47CB8070020B8070020C0070020C0070020EF
S21440B48CC8070020C8070020D0070020D00700209F
S21440B49CD8070020D8070020E0070020E00700204F
S21440B4ACE8070020E8070020F0070020F0070020FF
S21440B4BCF8070020F80700200008002000080020AD
S21440B4CC080800200808002010080020100800205B
S21440B4DC180800201808002020080020200800200B
S21440B4EC28080020280800203008002030080020BB
S21440B4FC380800203808002040080020400800206B
S21440B50C480800204808002050080020500800201A
S21440B51C58080020580800206008002060080020CA
S21440B52C680800206808002070080020700800207A
S21440B53C780800207808002080080020800800202A
S21440B54C88080020880800209008002090080020DA
S21440B55C9808002098080020A0080020A00800208A
S21440B56CA8080020A8080020B0080020B00800203A
S21440B57CB8080020B8080020C0080020C0080020EA
S21440B58CC8080020C8080020D0080020D00800209A
S21440B59CD8080020D8080020E0080020E00800204A
S21440B5ACE8080020E8080020F0080020F0080020FA
S21440B5BCF8080020F80800200009002000090020A8
S21440B5CC0809002008090020100900201009002056
S21440B5DC1809002018090020200900202009002006
S21440B5EC28090020280900203009002030090020B6
S21440B5FC3809002038090020400900204009002066
S21440B60C4809002048090020500900205009002015
S21440B61C58090020580900206009002060090020C5
S21440B62C6809002068090020700900207009002075
S21440B63C7809002078090020800900208009002025
S21440B64C88090020880900209009002090090020D5
S21440B65C9809002098090020A0090020A009002085
S21440B66CA8090020A8090020B0090020B009002035
S21440B67CB8090020B8090020C0090020C0090020E5
S20C40B68CFFFFFFFF0000020073
S804400000BB
